{
  "transactions": [
    {
      "hash": "0x600c5c5928c63b397c3f26a6b26a38df575e844449b23d03e62b3583362f7c2b",
      "transactionType": "CREATE2",
      "contractName": "LPRebalanceHook",
      "contractAddress": "0x86ec746eaed03b5216850f8349d97063fcd01440",
      "function": null,
      "arguments": [
        "0x000000000004444c5dc75cB358380D2e3dE08A90",
        "0xf39Fd6e51aad88F6F4ce6aB8827279cffFb92266"
      ],
      "transaction": {
        "from": "0xf39fd6e51aad88f6f4ce6ab8827279cfffb92266",
        "to": "0x4e59b44847b379578588920ca78fbf26c0b4956c",
        "gas": "0x2aa0c4",
        "value": "0x0",
        "input": "0x0000000000000000000000000000000000000000000000000000000000007af560a060405260015f55348015610013575f80fd5b5060405161244138038061244183398101604081905261003291610349565b6001600160a01b038216608052808261004a30610089565b506001600160a01b03811661007857604051631e4fbdf760e01b81525f600482015260240160405180910390fd5b6100818161017f565b505050610381565b61017c81610177604080516101c0810182525f80825260208201819052918101829052606081018290526080810182905260a0810182905260c0810182905260e08101829052610100810182905261012081018290526101408101829052610160810182905261018081018290526101a081019190915250604080516101c0810182525f808252600160208301819052928201819052606082018390526080820181905260a0820181905260c0820181905260e0820192909252610100810182905261012081018290526101408101829052610160810182905261018081018290526101a081019190915290565b6101d0565b50565b600180546001600160a01b038381166001600160a01b0319831681179093556040519116919082907f8be0079c531659141344cd1fd0a4f28419497f9722a3daafe3b4186f6b6457e0905f90a35050565b80511515612000831615151415806101f45750602081015115156110008316151514155b8061020b5750604081015115156108008316151514155b806102225750606081015115156104008316151514155b806102395750608081015115156102008316151514155b80610250575060a081015115156101008316151514155b80610266575060c0810151151560808316151514155b8061027c575060e0810151151560408316151514155b806102935750610100810151151560208316151514155b806102aa5750610120810151151560108316151514155b806102c15750610140810151151560088316151514155b806102d85750610160810151151560048316151514155b806102ef5750610180810151151560028316151514155b8061030657506101a0810151151560018316151514155b1561031c5761031c630732d7b560e51b83610320565b5050565b815f526001600160a01b03811660045260245ffd5b6001600160a01b038116811461017c575f80fd5b5f806040838503121561035a575f80fd5b825161036581610335565b602084015190925061037681610335565b809150509250929050565b6080516120696103d85f395f81816104d701528181610560015281816105c30152818161062c015281816106c101528181610793015281816108b301528181610c9501528181610cfd0152610d9701526120695ff3fe608060405234801561000f575f80fd5b5060043610610184575f3560e01c8063afb9c3fa116100dd578063d598d4c911610088578063e1b4af6911610063578063e1b4af6914610370578063e4cbfea51461050c578063f2fde38b14610541575f80fd5b8063d598d4c9146104bf578063dc4c90d3146104d2578063dc98354e146104f9575f80fd5b8063bf8bdac1116100b8578063bf8bdac114610383578063c30184b714610396578063c4e833ce146103c8575f80fd5b8063afb9c3fa14610327578063b47b2fb11461033a578063b6a8b0fa14610370575f80fd5b80636fe7e6eb1161013d5780638da5cb5b116101185780638da5cb5b1461027b5780639f063efc146102a0578063ac7408e2146102b3575f80fd5b80636fe7e6eb1461024b578063715018a61461025e5780637527729e14610268575f80fd5b8063575e24b41161016d578063575e24b4146101b95780636c2bbe7e146101f75780636deb3c021461022a575f80fd5b806321d0ee7014610188578063259982e514610188575b5f80fd5b61019b61019636600461171c565b610554565b6040516001600160e01b031990911681526020015b60405180910390f35b6101cc6101c73660046117a3565b6105b5565b604080516001600160e01b03199094168452602084019290925262ffffff16908201526060016101b0565b61020a6102053660046117fd565b61061f565b604080516001600160e01b031990931683526020830191909152016101b0565b61023d61023836600461189e565b61068a565b6040519081526020016101b0565b61019b6102593660046118c6565b6106b5565b610266610714565b005b61026661027636600461191d565b610727565b6001546001600160a01b03165b6040516001600160a01b0390911681526020016101b0565b61020a6102ae3660046117fd565b610786565b6102f76102c1366004611939565b60046020525f90815260409020805460018201546002928301549282900b926001600160a01b0363010000009093048316921684565b6040805160029590950b85526001600160a01b0393841660208601528401919091521660608201526080016101b0565b610266610335366004611950565b6107e0565b61034d610348366004611993565b610c88565b604080516001600160e01b03199093168352600f9190910b6020830152016101b0565b61019b61037e366004611a14565b610cf1565b610266610391366004611a6e565b610d54565b6103b86103a4366004611939565b60036020525f908152604090205460ff1681565b60405190151581526020016101b0565b6104b2604080516101c0810182525f80825260208201819052918101829052606081018290526080810182905260a0810182905260c0810182905260e08101829052610100810182905261012081018290526101408101829052610160810182905261018081018290526101a081019190915250604080516101c0810182525f808252600160208301819052928201819052606082018390526080820181905260a0820181905260c0820181905260e0820192909252610100810182905261012081018290526101408101829052610160810182905261018081018290526101a081019190915290565b6040516101b09190611a90565b600654610288906001600160a01b031681565b6102887f000000000000000000000000000000000000000000000000000000000000000081565b61019b610507366004611baa565b610d8b565b61052e61051a366004611939565b60056020525f908152604090205460020b81565b60405160029190910b81526020016101b0565b61026661054f366004611a6e565b610de8565b5f336001600160a01b037f0000000000000000000000000000000000000000000000000000000000000000161461059e5760405163570c108560e11b815260040160405180910390fd5b6105ab8686868686610e25565b9695505050505050565b5f8080336001600160a01b037f000000000000000000000000000000000000000000000000000000000000000016146106015760405163570c108560e11b815260040160405180910390fd5b61060e8888888888610e3f565b925092509250955095509592505050565b5f80336001600160a01b037f0000000000000000000000000000000000000000000000000000000000000000161461066a5760405163570c108560e11b815260040160405180910390fd5b61067989898989898989610e5b565b915091505b97509795505050505050565b6002602052815f5260405f2081815481106106a3575f80fd5b905f5260205f20015f91509150505481565b5f336001600160a01b037f000000000000000000000000000000000000000000000000000000000000000016146106ff5760405163570c108560e11b815260040160405180910390fd5b61070b85858585610e76565b95945050505050565b61071c610ec3565b6107255f610ef0565b565b60405163095ea7b360e01b8152306004820152602481018290526001600160a01b0383169063095ea7b3906044015f604051808303815f87803b15801561076c575f80fd5b505af115801561077e573d5f803e3d5ffd5b505050505050565b5f80336001600160a01b037f000000000000000000000000000000000000000000000000000000000000000016146107d15760405163570c108560e11b815260040160405180910390fd5b61067989898989898989610f4e565b5f546001146108365760405162461bcd60e51b815260206004820152600a60248201527f5245454e5452414e43590000000000000000000000000000000000000000000060448201526064015b60405180910390fd5b60025f81815560408051600360f81b6020820152601160f81b602182015281518082038501815260228201858152608283019093528694909392916042015b60608152602001906001900390816108755790505090505f6108d96108a96108a2368a90038a018a611c03565b60a0902090565b6001600160a01b037f0000000000000000000000000000000000000000000000000000000000000000169061114d565b50509150505f6108fb828960600160208101906108f69190611ca3565b6111ff565b90505b8560020b8160020b1215610c7a57600281810b5f90815260209182526040808220805482518186028101860190935280835292939192909183018282801561096357602002820191905f5260205f20905b81548152602001906001019080831161094f575b509394505f935061097b9250505060208b018b611a6e565b90505f61098e60408c0160208d01611a6e565b90505f5b8351811015610c55575f8482815181106109ae576109ae611cbc565b60200260200101519050805f14610c4c575f8181526003602052604090205460ff16156109ee576040516304fc265760e11b815260040160405180910390fd5b5f81815260046020908152604080832081516080810183528154600281810b83526001600160a01b03630100000090920482168387015260018401548386015290920154909116606082015281519283019091528282529190819081610a5542603c611ce4565b905085848484604051602001610a6e9493929190611d25565b6040516020818303038152906040528d5f81518110610a8f57610a8f611cbc565b602002602001018190525088888660200151604051602001610ad1939291906001600160a01b0393841681529183166020830152909116604082015260600190565b6040516020818303038152906040528d600181518110610af357610af3611cbc565b6020026020010181905250610b3d6040518060400160405280601581526020017f4275726e696e6720706f736974696f6e2069643a20000000000000000000000081525087611260565b610b806040518060400160405280600b81526020017f526563697069656e743a2000000000000000000000000000000000000000000081525086602001516112a9565b600160035f8881526020019081526020015f205f6101000a81548160ff0219169083151502179055508e6001600160a01b031663dd46508f8f8f604051602001610bcb929190611d6d565b604051602081830303815290604052836040518363ffffffff1660e01b8152600401610bf8929190611de2565b5f604051808303815f87803b158015610c0f575f80fd5b505af1158015610c21573d5f803e3d5ffd5b50505050610c46604051806060016040528060218152602001612013602191396112ee565b50505050505b50600101610992565b50610c6660808c0160608d01611ca3565b610c709085611e03565b93505050506108fe565b505060015f55505050505050565b5f80336001600160a01b037f00000000000000000000000000000000000000000000000000000000000000001614610cd35760405163570c108560e11b815260040160405180910390fd5b610ce1888888888888611331565b915091505b965096945050505050565b5f336001600160a01b037f00000000000000000000000000000000000000000000000000000000000000001614610d3b5760405163570c108560e11b815260040160405180910390fd5b610d49878787878787610e25565b979650505050505050565b610d5c610ec3565b6006805473ffffffffffffffffffffffffffffffffffffffff19166001600160a01b0392909216919091179055565b5f336001600160a01b037f00000000000000000000000000000000000000000000000000000000000000001614610dd55760405163570c108560e11b815260040160405180910390fd5b610de0848484610e25565b949350505050565b610df0610ec3565b6001600160a01b038116610e1957604051631e4fbdf760e01b81525f600482015260240161082d565b610e2281610ef0565b50565b5f604051630a85dc2960e01b815260040160405180910390fd5b5f805f604051630a85dc2960e01b815260040160405180910390fd5b5f80604051630a85dc2960e01b815260040160405180910390fd5b5f81600582610e8d6108a236899003890189611c03565b815260208101919091526040015f20805462ffffff191662ffffff9290921691909117905550636fe7e6eb60e01b949350505050565b6001546001600160a01b031633146107255760405163118cdaa760e01b815233600482015260240161082d565b600180546001600160a01b0383811673ffffffffffffffffffffffffffffffffffffffff19831681179093556040519116919082907f8be0079c531659141344cd1fd0a4f28419497f9722a3daafe3b4186f6b6457e0905f90a35050565b5f8080610f666108a96108a2368c90038c018c611c03565b509092505050600281900b610f7e60208a018a611ca3565b60020b1315610f9a57506327c18fbf60e21b91505f905061067e565b604080516080810182525f808252602082018190529181018290526060810191909152841561108157610fcf85870187611e28565b90505f81606001516001600160a01b0316636352211e83604001516040518263ffffffff1660e01b815260040161100891815260200190565b602060405180830381865afa158015611023573d5f803e3d5ffd5b505050506040513d601f19601f820116820180604052508101906110479190611eae565b905081602001516001600160a01b0316816001600160a01b03161461107f576040516363e97c8d60e11b815260040160405180910390fd5b505b604081810180515f90815260046020908152838220855181548388015162ffffff83167fffffffffffffffffff00000000000000000000000000000000000000000000009092169190911763010000006001600160a01b039283160217835585516001808501919091556060909801516002938401805473ffffffffffffffffffffffffffffffffffffffff191691909216179055810b83528152928120915182549485018355918152918220909201919091556327c18fbf60e21b9b909a5098505050505050505050565b5f805f805f61115b866115f4565b604051631e2eaeaf60e01b8152600481018290529091505f906001600160a01b03891690631e2eaeaf90602401602060405180830381865afa1580156111a3573d5f803e3d5ffd5b505050506040513d601f19601f820116820180604052508101906111c79190611ec9565b90506001600160a01b03811695508060a01c60020b945062ffffff8160b81c16935062ffffff8160d01c169250505092959194509250565b5f808360020b1261122657816112158185611ef4565b61121f9190611f2c565b905061125a565b5f6112318385611f4b565b90508060020b5f03611246578391505061125a565b6112508185611f6c565b91505061125a565b505b92915050565b6112a58282604051602401611276929190611de2565b60408051601f198184030181529190526020810180516001600160e01b0316632d839cb360e21b179052611630565b5050565b6112a582826040516024016112bf929190611f91565b60408051601f198184030181529190526020810180516001600160e01b031663319af33360e01b179052611630565b610e22816040516024016113029190611fbb565b60408051601f198184030181529190526020810180516001600160e01b031663104c13eb60e21b179052611630565b5f80806113496108a96108a2368b90038b018b611c03565b50509150505f60055f6113668b8036038101906108a29190611c03565b815260208101919091526040015f9081205460020b9150611391836108f660808d0160608e01611ca3565b90508160020b8160020b13156113f4578260055f6113b76108a2368f90038f018f611c03565b815260208101919091526040015f908120805462ffffff191662ffffff939093169290921790915563b47b2fb160e01b95509350610ce692505050565b8160020b8160020b12156115db5760408051808201909152601181527f5365727669636520616464726573733a20000000000000000000000000000000602082015260065461144c91906001600160a01b03166112a9565b6006546001600160a01b0316156115db575f61146942603c611ce4565b6040805160a081019091529091505f908061148760208f018f611a6e565b6001600160a01b031681526020018d60200160208101906114a89190611a6e565b6001600160a01b031681526020018d60400160208101906114c99190611fcd565b62ffffff1681526020018d60600160208101906114e69190611ca3565b600290810b8252306020928301526006546040805163719e35e760e01b815285516001600160a01b03908116600483015294860151851660248201529085015162ffffff1660448201526060850151830b60648201526080850151841660848201529188900b60a483015260c482018690529293505f92919091169063719e35e79060e4016020604051808303815f875af1158015611587573d5f803e3d5ffd5b505050506040513d601f19601f820116820180604052508101906115ab9190611ec9565b90506115ce6040518060600160405280602c8152602001611fe7602c91396112ee565b6115d781611639565b5050505b5063b47b2fb160e01b9a5f9a5098505050505050505050565b6040515f90611613908390600690602001918252602082015260400190565b604051602081830303815290604052805190602001209050919050565b610e228161167e565b610e228160405160240161164f91815260200190565b60408051601f198184030181529190526020810180516001600160e01b03166327b7cf8560e01b179052611630565b5f6a636f6e736f6c652e6c6f6790505f80835160208501845afa505050565b6001600160a01b0381168114610e22575f80fd5b5f60a082840312156116c1575f80fd5b50919050565b5f608082840312156116c1575f80fd5b5f8083601f8401126116e7575f80fd5b50813567ffffffffffffffff8111156116fe575f80fd5b602083019150836020828501011115611715575f80fd5b9250929050565b5f805f805f6101608688031215611731575f80fd5b853561173c8161169d565b945061174b87602088016116b1565b935061175a8760c088016116c7565b925061014086013567ffffffffffffffff811115611776575f80fd5b611782888289016116d7565b969995985093965092949392505050565b5f606082840312156116c1575f80fd5b5f805f805f61014086880312156117b8575f80fd5b85356117c38161169d565b94506117d287602088016116b1565b93506117e18760c08801611793565b925061012086013567ffffffffffffffff811115611776575f80fd5b5f805f805f805f6101a0888a031215611814575f80fd5b873561181f8161169d565b965061182e8960208a016116b1565b955061183d8960c08a016116c7565b94506101408801359350610160880135925061018088013567ffffffffffffffff811115611869575f80fd5b6118758a828b016116d7565b989b979a50959850939692959293505050565b8035600281900b8114611899575f80fd5b919050565b5f80604083850312156118af575f80fd5b6118b883611888565b946020939093013593505050565b5f805f8061010085870312156118da575f80fd5b84356118e58161169d565b93506118f486602087016116b1565b925060c08501356119048161169d565b915061191260e08601611888565b905092959194509250565b5f806040838503121561192e575f80fd5b82356118b88161169d565b5f60208284031215611949575f80fd5b5035919050565b5f805f60e08486031215611962575f80fd5b61196c85856116b1565b925060a084013561197c8161169d565b915061198a60c08501611888565b90509250925092565b5f805f805f8061016087890312156119a9575f80fd5b86356119b48161169d565b95506119c388602089016116b1565b94506119d28860c08901611793565b9350610120870135925061014087013567ffffffffffffffff8111156119f6575f80fd5b611a0289828a016116d7565b979a9699509497509295939492505050565b5f805f805f806101208789031215611a2a575f80fd5b8635611a358161169d565b9550611a4488602089016116b1565b945060c0870135935060e0870135925061010087013567ffffffffffffffff8111156119f6575f80fd5b5f60208284031215611a7e575f80fd5b8135611a898161169d565b9392505050565b8151151581526101c081016020830151611aae602084018215159052565b506040830151611ac2604084018215159052565b506060830151611ad6606084018215159052565b506080830151611aea608084018215159052565b5060a0830151611afe60a084018215159052565b5060c0830151611b1260c084018215159052565b5060e0830151611b2660e084018215159052565b50610100830151611b3c61010084018215159052565b50610120830151611b5261012084018215159052565b50610140830151611b6861014084018215159052565b50610160830151611b7e61016084018215159052565b50610180830151611b9461018084018215159052565b506101a08301516112586101a084018215159052565b5f805f60e08486031215611bbc575f80fd5b8335611bc78161169d565b9250611bd685602086016116b1565b915060c0840135611be68161169d565b809150509250925092565b803562ffffff81168114611899575f80fd5b5f60a0828403128015611c14575f80fd5b5060405160a0810167ffffffffffffffff81118282101715611c4457634e487b7160e01b5f52604160045260245ffd5b6040528235611c528161169d565b81526020830135611c628161169d565b6020820152611c7360408401611bf1565b6040820152611c8460608401611888565b60608201526080830135611c978161169d565b60808201529392505050565b5f60208284031215611cb3575f80fd5b611a8982611888565b634e487b7160e01b5f52603260045260245ffd5b634e487b7160e01b5f52601160045260245ffd5b8082018082111561125a5761125a611cd0565b5f81518084528060208401602086015e5f602082860101526020601f19601f83011685010191505092915050565b8481526fffffffffffffffffffffffffffffffff841660208201526fffffffffffffffffffffffffffffffff83166040820152608060608201525f6105ab6080830184611cf7565b604081525f611d7f6040830185611cf7565b828103602084015280845180835260208301915060208160051b840101602087015f5b83811015611dd457601f19868403018552611dbe838351611cf7565b6020958601959093509190910190600101611da2565b509098975050505050505050565b604081525f611df46040830185611cf7565b90508260208301529392505050565b600281810b9083900b01627fffff8113627fffff198212171561125a5761125a611cd0565b5f6080828403128015611e39575f80fd5b506040516080810167ffffffffffffffff81118282101715611e6957634e487b7160e01b5f52604160045260245ffd5b604052611e7583611888565b81526020830135611e858161169d565b6020820152604083810135908201526060830135611ea28161169d565b60608201529392505050565b5f60208284031215611ebe575f80fd5b8151611a898161169d565b5f60208284031215611ed9575f80fd5b5051919050565b634e487b7160e01b5f52601260045260245ffd5b5f8160020b8360020b80611f0a57611f0a611ee0565b627fffff1982145f1982141615611f2357611f23611cd0565b90059392505050565b5f8260020b8260020b028060020b915080821461125857611258611cd0565b5f8260020b80611f5d57611f5d611ee0565b808360020b0791505092915050565b600282810b9082900b03627fffff198112627fffff8213171561125a5761125a611cd0565b604081525f611fa36040830185611cf7565b90506001600160a01b03831660208301529392505050565b602081525f611a896020830184611cf7565b5f60208284031215611fdd575f80fd5b611a8982611bf156fe5461736b207375636365737366756c6c792073656e7420746f20736572766963652e205461736b486173683a4d6f646966696564206c69717569646974696573207375636365737366756c6c79a2646970667358221220611a41d9218edc56ee0017593048595d35965e57446ff1b5a4373f68c9fcfda664736f6c634300081a0033000000000000000000000000000000000004444c5dc75cb358380d2e3de08a90000000000000000000000000f39fd6e51aad88f6f4ce6ab8827279cfffb92266",
        "nonce": "0xb02",
        "chainId": "0x1"
      },
      "additionalContracts": [],
      "isFixedGasLimit": false
    },
    {
      "hash": "0x26cfe15e60325f7fda983f107b1c4ea5fa921a1378ce1b0d74225e4c37f4600c",
      "transactionType": "CREATE",
      "contractName": "MockERC20",
      "contractAddress": "0xc013f347b64d5a6de839ea9bfa8cd1fbe4163df9",
      "function": null,
      "arguments": [
        "TokenA",
        "TKNA",
        "18"
      ],
      "transaction": {
        "from": "0xf39fd6e51aad88f6f4ce6ab8827279cfffb92266",
        "gas": "0xf14d1",
        "value": "0x0",
        "input": "0x60e060405234801561000f575f80fd5b50604051610f9d380380610f9d83398101604081905261002e916101a1565b8282825f61003c84826102a2565b50600161004983826102a2565b5060ff81166080524660a05261005d61006c565b60c052506103cd945050505050565b5f7f8b73c3c69bb8fe3d512ecc4cf759cc79239f7b179b0ffacaa9a75d522b39400f5f60405161009c919061035c565b6040805191829003822060208301939093528101919091527fc89efdaa54c0f20c7adf612882df0950f5a951637e0307cdcb4c672f298b8bc660608201524660808201523060a082015260c00160405160208183030381529060405280519060200120905090565b634e487b7160e01b5f52604160045260245ffd5b5f82601f830112610127575f80fd5b81516001600160401b0381111561014057610140610104565b604051601f8201601f19908116603f011681016001600160401b038111828210171561016e5761016e610104565b604052818152838201602001851015610185575f80fd5b8160208501602083015e5f918101602001919091529392505050565b5f805f606084860312156101b3575f80fd5b83516001600160401b038111156101c8575f80fd5b6101d486828701610118565b602086015190945090506001600160401b038111156101f1575f80fd5b6101fd86828701610118565b925050604084015160ff81168114610213575f80fd5b809150509250925092565b600181811c9082168061023257607f821691505b60208210810361025057634e487b7160e01b5f52602260045260245ffd5b50919050565b601f82111561029d57805f5260205f20601f840160051c8101602085101561027b5750805b601f840160051c820191505b8181101561029a575f8155600101610287565b50505b505050565b81516001600160401b038111156102bb576102bb610104565b6102cf816102c9845461021e565b84610256565b6020601f821160018114610301575f83156102ea5750848201515b5f19600385901b1c1916600184901b17845561029a565b5f84815260208120601f198516915b828110156103305787850151825560209485019460019092019101610310565b508482101561034d57868401515f19600387901b60f8161c191681555b50505050600190811b01905550565b5f8083546103698161021e565b6001821680156103805760018114610395576103c2565b60ff19831686528115158202860193506103c2565b865f5260205f205f5b838110156103ba5781548882015260019091019060200161039e565b505081860193505b509195945050505050565b60805160a05160c051610ba66103f75f395f61046f01525f61043a01525f6101590152610ba65ff3fe608060405234801561000f575f80fd5b50600436106100e5575f3560e01c806370a08231116100885780639dc29fac116100635780639dc29fac146101f0578063a9059cbb14610203578063d505accf14610216578063dd62ed3e14610229575f80fd5b806370a08231146101aa5780637ecebe00146101c957806395d89b41146101e8575f80fd5b806323b872dd116100c357806323b872dd14610141578063313ce567146101545780633644e5151461018d57806340c10f1914610195575f80fd5b806306fdde03146100e9578063095ea7b31461010757806318160ddd1461012a575b5f80fd5b6100f1610253565b6040516100fe91906108f2565b60405180910390f35b61011a610115366004610942565b6102de565b60405190151581526020016100fe565b61013360025481565b6040519081526020016100fe565b61011a61014f36600461096a565b61034a565b61017b7f000000000000000000000000000000000000000000000000000000000000000081565b60405160ff90911681526020016100fe565b610133610437565b6101a86101a3366004610942565b610491565b005b6101336101b83660046109a4565b60036020525f908152604090205481565b6101336101d73660046109a4565b60056020525f908152604090205481565b6100f161049f565b6101a86101fe366004610942565b6104ac565b61011a610211366004610942565b6104b6565b6101a86102243660046109c4565b61052c565b610133610237366004610a31565b600460209081525f928352604080842090915290825290205481565b5f805461025f90610a62565b80601f016020809104026020016040519081016040528092919081815260200182805461028b90610a62565b80156102d65780601f106102ad576101008083540402835291602001916102d6565b820191905f5260205f20905b8154815290600101906020018083116102b957829003601f168201915b505050505081565b335f8181526004602090815260408083206001600160a01b038716808552925280832085905551919290917f8c5be1e5ebec7d5bd14f71427d1e84f3dd0314c0f7b2291e5b200ac8c7c3b925906103389086815260200190565b60405180910390a35060015b92915050565b6001600160a01b0383165f9081526004602090815260408083203384529091528120545f1981146103a35761037f8382610aae565b6001600160a01b0386165f9081526004602090815260408083203384529091529020555b6001600160a01b0385165f90815260036020526040812080548592906103ca908490610aae565b90915550506001600160a01b038085165f81815260036020526040908190208054870190555190918716907fddf252ad1be2c89b69c2b068fc378daa952ba7f163c4a11628f55a4df523b3ef906104249087815260200190565b60405180910390a3506001949350505050565b5f7f0000000000000000000000000000000000000000000000000000000000000000461461046c5761046761077e565b905090565b507f000000000000000000000000000000000000000000000000000000000000000090565b61049b8282610816565b5050565b6001805461025f90610a62565b61049b8282610880565b335f908152600360205260408120805483919083906104d6908490610aae565b90915550506001600160a01b0383165f81815260036020526040908190208054850190555133907fddf252ad1be2c89b69c2b068fc378daa952ba7f163c4a11628f55a4df523b3ef906103389086815260200190565b428410156105815760405162461bcd60e51b815260206004820152601760248201527f5045524d49545f444541444c494e455f4558504952454400000000000000000060448201526064015b60405180910390fd5b5f600161058c610437565b6001600160a01b038a81165f8181526005602090815260409182902080546001810190915582517f6e71edae12b1b97f4d1f60370fef10105fa2faae0126114a169c64845d6126c98184015280840194909452938d166060840152608083018c905260a083019390935260c08083018b90528151808403909101815260e08301909152805192019190912061190160f01b6101008301526101028201929092526101228101919091526101420160408051601f1981840301815282825280516020918201205f84529083018083525260ff871690820152606081018590526080810184905260a0016020604051602081039080840390855afa158015610694573d5f803e3d5ffd5b5050604051601f1901519150506001600160a01b038116158015906106ca5750876001600160a01b0316816001600160a01b0316145b6107165760405162461bcd60e51b815260206004820152600e60248201527f494e56414c49445f5349474e45520000000000000000000000000000000000006044820152606401610578565b6001600160a01b039081165f9081526004602090815260408083208a8516808552908352928190208990555188815291928a16917f8c5be1e5ebec7d5bd14f71427d1e84f3dd0314c0f7b2291e5b200ac8c7c3b925910160405180910390a350505050505050565b5f7f8b73c3c69bb8fe3d512ecc4cf759cc79239f7b179b0ffacaa9a75d522b39400f5f6040516107ae9190610ac1565b6040805191829003822060208301939093528101919091527fc89efdaa54c0f20c7adf612882df0950f5a951637e0307cdcb4c672f298b8bc660608201524660808201523060a082015260c00160405160208183030381529060405280519060200120905090565b8060025f8282546108279190610b5d565b90915550506001600160a01b0382165f818152600360209081526040808320805486019055518481527fddf252ad1be2c89b69c2b068fc378daa952ba7f163c4a11628f55a4df523b3ef91015b60405180910390a35050565b6001600160a01b0382165f90815260036020526040812080548392906108a7908490610aae565b90915550506002805482900390556040518181525f906001600160a01b038416907fddf252ad1be2c89b69c2b068fc378daa952ba7f163c4a11628f55a4df523b3ef90602001610874565b602081525f82518060208401528060208501604085015e5f604082850101526040601f19601f83011684010191505092915050565b80356001600160a01b038116811461093d575f80fd5b919050565b5f8060408385031215610953575f80fd5b61095c83610927565b946020939093013593505050565b5f805f6060848603121561097c575f80fd5b61098584610927565b925061099360208501610927565b929592945050506040919091013590565b5f602082840312156109b4575f80fd5b6109bd82610927565b9392505050565b5f805f805f805f60e0888a0312156109da575f80fd5b6109e388610927565b96506109f160208901610927565b95506040880135945060608801359350608088013560ff81168114610a14575f80fd5b9699959850939692959460a0840135945060c09093013592915050565b5f8060408385031215610a42575f80fd5b610a4b83610927565b9150610a5960208401610927565b90509250929050565b600181811c90821680610a7657607f821691505b602082108103610a9457634e487b7160e01b5f52602260045260245ffd5b50919050565b634e487b7160e01b5f52601160045260245ffd5b8181038181111561034457610344610a9a565b5f8083545f8160011c90506001821680610adc57607f821691505b602082108103610afa57634e487b7160e01b5f52602260045260245ffd5b808015610b0e5760018114610b2357610b51565b60ff1984168752821515830287019450610b51565b5f888152602090205f5b84811015610b4957815489820152600190910190602001610b2d565b505082870194505b50929695505050505050565b8082018082111561034457610344610a9a56fea26469706673582212205e8247f025191a951d18dd02e1bdcafd4eef361c6ede746d237dcfb35110cd2664736f6c634300081a0033000000000000000000000000000000000000000000000000000000000000006000000000000000000000000000000000000000000000000000000000000000a000000000000000000000000000000000000000000000000000000000000000120000000000000000000000000000000000000000000000000000000000000006546f6b656e4100000000000000000000000000000000000000000000000000000000000000000000000000000000000000000000000000000000000000000004544b4e4100000000000000000000000000000000000000000000000000000000",
        "nonce": "0xb03",
        "chainId": "0x1"
      },
      "additionalContracts": [],
      "isFixedGasLimit": false
    },
    {
      "hash": "0xe01dd6d10f6ec92a914e962829b45df87287ca786f95669a910712ccd223bdb0",
      "transactionType": "CREATE",
      "contractName": "MockERC20",
      "contractAddress": "0x515f3db6c4249919b74ea55915969944fea4b311",
      "function": null,
      "arguments": [
        "TokenB",
        "TKNB",
        "18"
      ],
      "transaction": {
        "from": "0xf39fd6e51aad88f6f4ce6ab8827279cfffb92266",
        "gas": "0xf14d1",
        "value": "0x0",
        "input": "0x60e060405234801561000f575f80fd5b50604051610f9d380380610f9d83398101604081905261002e916101a1565b8282825f61003c84826102a2565b50600161004983826102a2565b5060ff81166080524660a05261005d61006c565b60c052506103cd945050505050565b5f7f8b73c3c69bb8fe3d512ecc4cf759cc79239f7b179b0ffacaa9a75d522b39400f5f60405161009c919061035c565b6040805191829003822060208301939093528101919091527fc89efdaa54c0f20c7adf612882df0950f5a951637e0307cdcb4c672f298b8bc660608201524660808201523060a082015260c00160405160208183030381529060405280519060200120905090565b634e487b7160e01b5f52604160045260245ffd5b5f82601f830112610127575f80fd5b81516001600160401b0381111561014057610140610104565b604051601f8201601f19908116603f011681016001600160401b038111828210171561016e5761016e610104565b604052818152838201602001851015610185575f80fd5b8160208501602083015e5f918101602001919091529392505050565b5f805f606084860312156101b3575f80fd5b83516001600160401b038111156101c8575f80fd5b6101d486828701610118565b602086015190945090506001600160401b038111156101f1575f80fd5b6101fd86828701610118565b925050604084015160ff81168114610213575f80fd5b809150509250925092565b600181811c9082168061023257607f821691505b60208210810361025057634e487b7160e01b5f52602260045260245ffd5b50919050565b601f82111561029d57805f5260205f20601f840160051c8101602085101561027b5750805b601f840160051c820191505b8181101561029a575f8155600101610287565b50505b505050565b81516001600160401b038111156102bb576102bb610104565b6102cf816102c9845461021e565b84610256565b6020601f821160018114610301575f83156102ea5750848201515b5f19600385901b1c1916600184901b17845561029a565b5f84815260208120601f198516915b828110156103305787850151825560209485019460019092019101610310565b508482101561034d57868401515f19600387901b60f8161c191681555b50505050600190811b01905550565b5f8083546103698161021e565b6001821680156103805760018114610395576103c2565b60ff19831686528115158202860193506103c2565b865f5260205f205f5b838110156103ba5781548882015260019091019060200161039e565b505081860193505b509195945050505050565b60805160a05160c051610ba66103f75f395f61046f01525f61043a01525f6101590152610ba65ff3fe608060405234801561000f575f80fd5b50600436106100e5575f3560e01c806370a08231116100885780639dc29fac116100635780639dc29fac146101f0578063a9059cbb14610203578063d505accf14610216578063dd62ed3e14610229575f80fd5b806370a08231146101aa5780637ecebe00146101c957806395d89b41146101e8575f80fd5b806323b872dd116100c357806323b872dd14610141578063313ce567146101545780633644e5151461018d57806340c10f1914610195575f80fd5b806306fdde03146100e9578063095ea7b31461010757806318160ddd1461012a575b5f80fd5b6100f1610253565b6040516100fe91906108f2565b60405180910390f35b61011a610115366004610942565b6102de565b60405190151581526020016100fe565b61013360025481565b6040519081526020016100fe565b61011a61014f36600461096a565b61034a565b61017b7f000000000000000000000000000000000000000000000000000000000000000081565b60405160ff90911681526020016100fe565b610133610437565b6101a86101a3366004610942565b610491565b005b6101336101b83660046109a4565b60036020525f908152604090205481565b6101336101d73660046109a4565b60056020525f908152604090205481565b6100f161049f565b6101a86101fe366004610942565b6104ac565b61011a610211366004610942565b6104b6565b6101a86102243660046109c4565b61052c565b610133610237366004610a31565b600460209081525f928352604080842090915290825290205481565b5f805461025f90610a62565b80601f016020809104026020016040519081016040528092919081815260200182805461028b90610a62565b80156102d65780601f106102ad576101008083540402835291602001916102d6565b820191905f5260205f20905b8154815290600101906020018083116102b957829003601f168201915b505050505081565b335f8181526004602090815260408083206001600160a01b038716808552925280832085905551919290917f8c5be1e5ebec7d5bd14f71427d1e84f3dd0314c0f7b2291e5b200ac8c7c3b925906103389086815260200190565b60405180910390a35060015b92915050565b6001600160a01b0383165f9081526004602090815260408083203384529091528120545f1981146103a35761037f8382610aae565b6001600160a01b0386165f9081526004602090815260408083203384529091529020555b6001600160a01b0385165f90815260036020526040812080548592906103ca908490610aae565b90915550506001600160a01b038085165f81815260036020526040908190208054870190555190918716907fddf252ad1be2c89b69c2b068fc378daa952ba7f163c4a11628f55a4df523b3ef906104249087815260200190565b60405180910390a3506001949350505050565b5f7f0000000000000000000000000000000000000000000000000000000000000000461461046c5761046761077e565b905090565b507f000000000000000000000000000000000000000000000000000000000000000090565b61049b8282610816565b5050565b6001805461025f90610a62565b61049b8282610880565b335f908152600360205260408120805483919083906104d6908490610aae565b90915550506001600160a01b0383165f81815260036020526040908190208054850190555133907fddf252ad1be2c89b69c2b068fc378daa952ba7f163c4a11628f55a4df523b3ef906103389086815260200190565b428410156105815760405162461bcd60e51b815260206004820152601760248201527f5045524d49545f444541444c494e455f4558504952454400000000000000000060448201526064015b60405180910390fd5b5f600161058c610437565b6001600160a01b038a81165f8181526005602090815260409182902080546001810190915582517f6e71edae12b1b97f4d1f60370fef10105fa2faae0126114a169c64845d6126c98184015280840194909452938d166060840152608083018c905260a083019390935260c08083018b90528151808403909101815260e08301909152805192019190912061190160f01b6101008301526101028201929092526101228101919091526101420160408051601f1981840301815282825280516020918201205f84529083018083525260ff871690820152606081018590526080810184905260a0016020604051602081039080840390855afa158015610694573d5f803e3d5ffd5b5050604051601f1901519150506001600160a01b038116158015906106ca5750876001600160a01b0316816001600160a01b0316145b6107165760405162461bcd60e51b815260206004820152600e60248201527f494e56414c49445f5349474e45520000000000000000000000000000000000006044820152606401610578565b6001600160a01b039081165f9081526004602090815260408083208a8516808552908352928190208990555188815291928a16917f8c5be1e5ebec7d5bd14f71427d1e84f3dd0314c0f7b2291e5b200ac8c7c3b925910160405180910390a350505050505050565b5f7f8b73c3c69bb8fe3d512ecc4cf759cc79239f7b179b0ffacaa9a75d522b39400f5f6040516107ae9190610ac1565b6040805191829003822060208301939093528101919091527fc89efdaa54c0f20c7adf612882df0950f5a951637e0307cdcb4c672f298b8bc660608201524660808201523060a082015260c00160405160208183030381529060405280519060200120905090565b8060025f8282546108279190610b5d565b90915550506001600160a01b0382165f818152600360209081526040808320805486019055518481527fddf252ad1be2c89b69c2b068fc378daa952ba7f163c4a11628f55a4df523b3ef91015b60405180910390a35050565b6001600160a01b0382165f90815260036020526040812080548392906108a7908490610aae565b90915550506002805482900390556040518181525f906001600160a01b038416907fddf252ad1be2c89b69c2b068fc378daa952ba7f163c4a11628f55a4df523b3ef90602001610874565b602081525f82518060208401528060208501604085015e5f604082850101526040601f19601f83011684010191505092915050565b80356001600160a01b038116811461093d575f80fd5b919050565b5f8060408385031215610953575f80fd5b61095c83610927565b946020939093013593505050565b5f805f6060848603121561097c575f80fd5b61098584610927565b925061099360208501610927565b929592945050506040919091013590565b5f602082840312156109b4575f80fd5b6109bd82610927565b9392505050565b5f805f805f805f60e0888a0312156109da575f80fd5b6109e388610927565b96506109f160208901610927565b95506040880135945060608801359350608088013560ff81168114610a14575f80fd5b9699959850939692959460a0840135945060c09093013592915050565b5f8060408385031215610a42575f80fd5b610a4b83610927565b9150610a5960208401610927565b90509250929050565b600181811c90821680610a7657607f821691505b602082108103610a9457634e487b7160e01b5f52602260045260245ffd5b50919050565b634e487b7160e01b5f52601160045260245ffd5b8181038181111561034457610344610a9a565b5f8083545f8160011c90506001821680610adc57607f821691505b602082108103610afa57634e487b7160e01b5f52602260045260245ffd5b808015610b0e5760018114610b2357610b51565b60ff1984168752821515830287019450610b51565b5f888152602090205f5b84811015610b4957815489820152600190910190602001610b2d565b505082870194505b50929695505050505050565b8082018082111561034457610344610a9a56fea26469706673582212205e8247f025191a951d18dd02e1bdcafd4eef361c6ede746d237dcfb35110cd2664736f6c634300081a0033000000000000000000000000000000000000000000000000000000000000006000000000000000000000000000000000000000000000000000000000000000a000000000000000000000000000000000000000000000000000000000000000120000000000000000000000000000000000000000000000000000000000000006546f6b656e4200000000000000000000000000000000000000000000000000000000000000000000000000000000000000000000000000000000000000000004544b4e4200000000000000000000000000000000000000000000000000000000",
        "nonce": "0xb04",
        "chainId": "0x1"
      },
      "additionalContracts": [],
      "isFixedGasLimit": false
    },
    {
      "hash": "0x3fc865e42a495b7276743acdb1f0f16b6fc820dd94dde04f6da1af9b48cd8fea",
      "transactionType": "CALL",
      "contractName": "MockERC20",
      "contractAddress": "0xc013f347b64d5a6de839ea9bfa8cd1fbe4163df9",
      "function": "mint(address,uint256)",
      "arguments": [
        "0xf39Fd6e51aad88F6F4ce6aB8827279cffFb92266",
        "1000000000000000000000000"
      ],
      "transaction": {
        "from": "0xf39fd6e51aad88f6f4ce6ab8827279cfffb92266",
        "to": "0xc013f347b64d5a6de839ea9bfa8cd1fbe4163df9",
        "gas": "0x17086",
        "value": "0x0",
        "input": "0x40c10f19000000000000000000000000f39fd6e51aad88f6f4ce6ab8827279cfffb9226600000000000000000000000000000000000000000000d3c21bcecceda1000000",
        "nonce": "0xb05",
        "chainId": "0x1"
      },
      "additionalContracts": [],
      "isFixedGasLimit": false
    },
    {
      "hash": "0xd8d504f81f573a1b06a3d5bdcb4e88c3482ce0ea0daebc24b060edc811b773d9",
      "transactionType": "CALL",
      "contractName": "MockERC20",
      "contractAddress": "0x515f3db6c4249919b74ea55915969944fea4b311",
      "function": "mint(address,uint256)",
      "arguments": [
        "0xf39Fd6e51aad88F6F4ce6aB8827279cffFb92266",
        "1000000000000000000000000"
      ],
      "transaction": {
        "from": "0xf39fd6e51aad88f6f4ce6ab8827279cfffb92266",
        "to": "0x515f3db6c4249919b74ea55915969944fea4b311",
        "gas": "0x17086",
        "value": "0x0",
        "input": "0x40c10f19000000000000000000000000f39fd6e51aad88f6f4ce6ab8827279cfffb9226600000000000000000000000000000000000000000000d3c21bcecceda1000000",
        "nonce": "0xb06",
        "chainId": "0x1"
      },
      "additionalContracts": [],
      "isFixedGasLimit": false
    },
    {
      "hash": "0x76aa83d9a84a5dec845c71cfd1ddbeef1fc142d9379bd83ce9e543dbbe4f10b8",
      "transactionType": "CALL",
      "contractName": "MockERC20",
      "contractAddress": "0xc013f347b64d5a6de839ea9bfa8cd1fbe4163df9",
      "function": "mint(address,uint256)",
      "arguments": [
        "0xf39Fd6e51aad88F6F4ce6aB8827279cffFb92266",
        "100000000000000000000"
      ],
      "transaction": {
        "from": "0xf39fd6e51aad88f6f4ce6ab8827279cfffb92266",
        "to": "0xc013f347b64d5a6de839ea9bfa8cd1fbe4163df9",
        "gas": "0xb800",
        "value": "0x0",
        "input": "0x40c10f19000000000000000000000000f39fd6e51aad88f6f4ce6ab8827279cfffb922660000000000000000000000000000000000000000000000056bc75e2d63100000",
        "nonce": "0xb07",
        "chainId": "0x1"
      },
      "additionalContracts": [],
      "isFixedGasLimit": false
    },
    {
      "hash": "0x94ede5e05113ec1c94f80fc9b65d67aaa74a4fbaa8b70f8af5886f871f282b85",
      "transactionType": "CALL",
      "contractName": "MockERC20",
      "contractAddress": "0x515f3db6c4249919b74ea55915969944fea4b311",
      "function": "mint(address,uint256)",
      "arguments": [
        "0xf39Fd6e51aad88F6F4ce6aB8827279cffFb92266",
        "100000000000000000000"
      ],
      "transaction": {
        "from": "0xf39fd6e51aad88f6f4ce6ab8827279cfffb92266",
        "to": "0x515f3db6c4249919b74ea55915969944fea4b311",
        "gas": "0xb800",
        "value": "0x0",
        "input": "0x40c10f19000000000000000000000000f39fd6e51aad88f6f4ce6ab8827279cfffb922660000000000000000000000000000000000000000000000056bc75e2d63100000",
        "nonce": "0xb08",
        "chainId": "0x1"
      },
      "additionalContracts": [],
      "isFixedGasLimit": false
    },
    {
      "hash": "0x3a0577dbc8762f3a36ce4bd2181db0aa9088f156695306ec9344143b20493ac2",
      "transactionType": "CALL",
      "contractName": "MockERC20",
      "contractAddress": "0xc013f347b64d5a6de839ea9bfa8cd1fbe4163df9",
      "function": "approve(address,uint256)",
      "arguments": [
        "0x000000000022D473030F116dDEE9F6B43aC78BA3",
        "115792089237316195423570985008687907853269984665640564039457584007913129639935"
      ],
      "transaction": {
        "from": "0xf39fd6e51aad88f6f4ce6ab8827279cfffb92266",
        "to": "0xc013f347b64d5a6de839ea9bfa8cd1fbe4163df9",
        "gas": "0x1093b",
        "value": "0x0",
        "input": "0x095ea7b3000000000000000000000000000000000022d473030f116ddee9f6b43ac78ba3ffffffffffffffffffffffffffffffffffffffffffffffffffffffffffffffff",
        "nonce": "0xb09",
        "chainId": "0x1"
      },
      "additionalContracts": [],
      "isFixedGasLimit": false
    },
    {
      "hash": "0x2b702e7ae49d66419020f5d7a04963784b265d4c3970384efc3d242bf342a2bd",
      "transactionType": "CALL",
      "contractName": "MockERC20",
      "contractAddress": "0x515f3db6c4249919b74ea55915969944fea4b311",
      "function": "approve(address,uint256)",
      "arguments": [
        "0x000000000022D473030F116dDEE9F6B43aC78BA3",
        "115792089237316195423570985008687907853269984665640564039457584007913129639935"
      ],
      "transaction": {
        "from": "0xf39fd6e51aad88f6f4ce6ab8827279cfffb92266",
        "to": "0x515f3db6c4249919b74ea55915969944fea4b311",
        "gas": "0x1093b",
        "value": "0x0",
        "input": "0x095ea7b3000000000000000000000000000000000022d473030f116ddee9f6b43ac78ba3ffffffffffffffffffffffffffffffffffffffffffffffffffffffffffffffff",
        "nonce": "0xb0a",
        "chainId": "0x1"
      },
      "additionalContracts": [],
      "isFixedGasLimit": false
    },
    {
      "hash": "0x4ce7f9d129041a9ba9829138422da056d8aeab1eaa90d3d6a089cbda600ee06d",
      "transactionType": "CALL",
      "contractName": null,
      "contractAddress": "0x000000000022d473030f116ddee9f6b43ac78ba3",
      "function": "approve(address,address,uint160,uint48)",
      "arguments": [
        "0xC013f347b64d5A6dE839Ea9bfa8Cd1fbE4163DF9",
        "0xbD216513d74C8cf14cf4747E6AaA6420FF64ee9e",
        "1461501637330902918203684832716283019655932542975",
        "281474976710655"
      ],
      "transaction": {
        "from": "0xf39fd6e51aad88f6f4ce6ab8827279cfffb92266",
        "to": "0x000000000022d473030f116ddee9f6b43ac78ba3",
        "gas": "0x1112d",
        "value": "0x0",
        "input": "0x87517c45000000000000000000000000c013f347b64d5a6de839ea9bfa8cd1fbe4163df9000000000000000000000000bd216513d74c8cf14cf4747e6aaa6420ff64ee9e000000000000000000000000ffffffffffffffffffffffffffffffffffffffff0000000000000000000000000000000000000000000000000000ffffffffffff",
        "nonce": "0xb0b",
        "chainId": "0x1"
      },
      "additionalContracts": [],
      "isFixedGasLimit": false
    },
    {
      "hash": "0xa5efd68b4411d21ff5b23ffbe0ac8d498222444a1a3ea5af8c6ae6e551e8d396",
      "transactionType": "CALL",
      "contractName": null,
      "contractAddress": "0x000000000022d473030f116ddee9f6b43ac78ba3",
      "function": "approve(address,address,uint160,uint48)",
      "arguments": [
        "0x515f3Db6c4249919B74eA55915969944fEA4B311",
        "0xbD216513d74C8cf14cf4747E6AaA6420FF64ee9e",
        "1461501637330902918203684832716283019655932542975",
        "281474976710655"
      ],
      "transaction": {
        "from": "0xf39fd6e51aad88f6f4ce6ab8827279cfffb92266",
        "to": "0x000000000022d473030f116ddee9f6b43ac78ba3",
        "gas": "0x1112d",
        "value": "0x0",
        "input": "0x87517c45000000000000000000000000515f3db6c4249919b74ea55915969944fea4b311000000000000000000000000bd216513d74c8cf14cf4747e6aaa6420ff64ee9e000000000000000000000000ffffffffffffffffffffffffffffffffffffffff0000000000000000000000000000000000000000000000000000ffffffffffff",
        "nonce": "0xb0c",
        "chainId": "0x1"
      },
      "additionalContracts": [],
      "isFixedGasLimit": false
    },
    {
      "hash": "0xb623ba356ca1f6962a227d295f0ec30ed01ee8b865a74ee0f501e56c6995e9ba",
      "transactionType": "CALL",
      "contractName": null,
      "contractAddress": "0x000000000004444c5dc75cb358380d2e3de08a90",
      "function": "initialize((address,address,uint24,int24,address),uint160)",
      "arguments": [
        "(0x515f3Db6c4249919B74eA55915969944fEA4B311, 0xC013f347b64d5A6dE839Ea9bfa8Cd1fbE4163DF9, 3000, 30, 0x86ec746EaeD03b5216850f8349D97063fCD01440)",
        "79228162514264337593543950336"
      ],
      "transaction": {
        "from": "0xf39fd6e51aad88f6f4ce6ab8827279cfffb92266",
        "to": "0x000000000004444c5dc75cb358380d2e3de08a90",
        "gas": "0x13d60",
        "value": "0x0",
        "input": "0x6276cbbe000000000000000000000000515f3db6c4249919b74ea55915969944fea4b311000000000000000000000000c013f347b64d5a6de839ea9bfa8cd1fbe4163df90000000000000000000000000000000000000000000000000000000000000bb8000000000000000000000000000000000000000000000000000000000000001e00000000000000000000000086ec746eaed03b5216850f8349d97063fcd014400000000000000000000000000000000000000001000000000000000000000000",
        "nonce": "0xb0d",
        "chainId": "0x1"
      },
      "additionalContracts": [],
      "isFixedGasLimit": false
    },
    {
      "hash": "0x9c85e5dfd51c94a1ca7a3422048587e62a81e07df49959736d6f5928a7af4be8",
      "transactionType": "CALL",
      "contractName": null,
      "contractAddress": "0xbd216513d74c8cf14cf4747e6aaa6420ff64ee9e",
      "function": "modifyLiquidities(bytes,uint256)",
      "arguments": [
        "0x0000000000000000000000000000000000000000000000000000000000000040000000000000000000000000000000000000000000000000000000000000008000000000000000000000000000000000000000000000000000000000000000030212120000000000000000000000000000000000000000000000000000000000000000000000000000000000000000000000000000000000000000000000000300000000000000000000000000000000000000000000000000000000000000600000000000000000000000000000000000000000000000000000000000000220000000000000000000000000000000000000000000000000000000000000026000000000000000000000000000000000000000000000000000000000000001a0000000000000000000000000515f3db6c4249919b74ea55915969944fea4b311000000000000000000000000c013f347b64d5a6de839ea9bfa8cd1fbe4163df90000000000000000000000000000000000000000000000000000000000000bb8000000000000000000000000000000000000000000000000000000000000001e00000000000000000000000086ec746eaed03b5216850f8349d97063fcd01440ffffffffffffffffffffffffffffffffffffffffffffffffffffffffffffffc4000000000000000000000000000000000000000000000000000000000000003c0000000000000000000000000000000000000000000000008ac7230489e8000000000000000000000000000000000000ffffffffffffffffffffffffffffffff00000000000000000000000000000000ffffffffffffffffffffffffffffffff000000000000000000000000f39fd6e51aad88f6f4ce6ab8827279cfffb92266000000000000000000000000000000000000000000000000000000000000018000000000000000000000000000000000000000000000000000000000000000000000000000000000000000000000000000000000000000000000000000000020000000000000000000000000515f3db6c4249919b74ea55915969944fea4b3110000000000000000000000000000000000000000000000000000000000000020000000000000000000000000c013f347b64d5a6de839ea9bfa8cd1fbe4163df9",
        "1757145533"
      ],
      "transaction": {
        "from": "0xf39fd6e51aad88f6f4ce6ab8827279cfffb92266",
        "to": "0xbd216513d74c8cf14cf4747e6aaa6420ff64ee9e",
        "gas": "0xa1d04",
        "value": "0x0",
        "input": "0xdd46508f00000000000000000000000000000000000000000000000000000000000000400000000000000000000000000000000000000000000000000000000068bbe9bd00000000000000000000000000000000000000000000000000000000000003400000000000000000000000000000000000000000000000000000000000000040000000000000000000000000000000000000000000000000000000000000008000000000000000000000000000000000000000000000000000000000000000030212120000000000000000000000000000000000000000000000000000000000000000000000000000000000000000000000000000000000000000000000000300000000000000000000000000000000000000000000000000000000000000600000000000000000000000000000000000000000000000000000000000000220000000000000000000000000000000000000000000000000000000000000026000000000000000000000000000000000000000000000000000000000000001a0000000000000000000000000515f3db6c4249919b74ea55915969944fea4b311000000000000000000000000c013f347b64d5a6de839ea9bfa8cd1fbe4163df90000000000000000000000000000000000000000000000000000000000000bb8000000000000000000000000000000000000000000000000000000000000001e00000000000000000000000086ec746eaed03b5216850f8349d97063fcd01440ffffffffffffffffffffffffffffffffffffffffffffffffffffffffffffffc4000000000000000000000000000000000000000000000000000000000000003c0000000000000000000000000000000000000000000000008ac7230489e8000000000000000000000000000000000000ffffffffffffffffffffffffffffffff00000000000000000000000000000000ffffffffffffffffffffffffffffffff000000000000000000000000f39fd6e51aad88f6f4ce6ab8827279cfffb92266000000000000000000000000000000000000000000000000000000000000018000000000000000000000000000000000000000000000000000000000000000000000000000000000000000000000000000000000000000000000000000000020000000000000000000000000515f3db6c4249919b74ea55915969944fea4b3110000000000000000000000000000000000000000000000000000000000000020000000000000000000000000c013f347b64d5a6de839ea9bfa8cd1fbe4163df9",
        "nonce": "0xb0e",
        "chainId": "0x1"
      },
      "additionalContracts": [],
      "isFixedGasLimit": false
    },
    {
      "hash": "0x44f274a96d4be3e27769c44f023bf4279922548642d322d5db41efae5c0e7a9f",
      "transactionType": "CALL",
      "contractName": null,
      "contractAddress": "0xbd216513d74c8cf14cf4747e6aaa6420ff64ee9e",
      "function": "modifyLiquidities(bytes,uint256)",
      "arguments": [
        "0x0000000000000000000000000000000000000000000000000000000000000040000000000000000000000000000000000000000000000000000000000000008000000000000000000000000000000000000000000000000000000000000000030212120000000000000000000000000000000000000000000000000000000000000000000000000000000000000000000000000000000000000000000000000300000000000000000000000000000000000000000000000000000000000000600000000000000000000000000000000000000000000000000000000000000220000000000000000000000000000000000000000000000000000000000000026000000000000000000000000000000000000000000000000000000000000001a0000000000000000000000000515f3db6c4249919b74ea55915969944fea4b311000000000000000000000000c013f347b64d5a6de839ea9bfa8cd1fbe4163df90000000000000000000000000000000000000000000000000000000000000bb8000000000000000000000000000000000000000000000000000000000000001e00000000000000000000000086ec746eaed03b5216850f8349d97063fcd01440ffffffffffffffffffffffffffffffffffffffffffffffffffffffffffffff8800000000000000000000000000000000000000000000000000000000000000780000000000000000000000000000000000000000000000008ac7230489e8000000000000000000000000000000000000ffffffffffffffffffffffffffffffff00000000000000000000000000000000ffffffffffffffffffffffffffffffff000000000000000000000000f39fd6e51aad88f6f4ce6ab8827279cfffb92266000000000000000000000000000000000000000000000000000000000000018000000000000000000000000000000000000000000000000000000000000000000000000000000000000000000000000000000000000000000000000000000020000000000000000000000000515f3db6c4249919b74ea55915969944fea4b3110000000000000000000000000000000000000000000000000000000000000020000000000000000000000000c013f347b64d5a6de839ea9bfa8cd1fbe4163df9",
        "1757147213"
      ],
      "transaction": {
        "from": "0xf39fd6e51aad88f6f4ce6ab8827279cfffb92266",
        "to": "0xbd216513d74c8cf14cf4747e6aaa6420ff64ee9e",
        "gas": "0x69508",
        "value": "0x0",
        "input": "0xdd46508f00000000000000000000000000000000000000000000000000000000000000400000000000000000000000000000000000000000000000000000000068bbf04d00000000000000000000000000000000000000000000000000000000000003400000000000000000000000000000000000000000000000000000000000000040000000000000000000000000000000000000000000000000000000000000008000000000000000000000000000000000000000000000000000000000000000030212120000000000000000000000000000000000000000000000000000000000000000000000000000000000000000000000000000000000000000000000000300000000000000000000000000000000000000000000000000000000000000600000000000000000000000000000000000000000000000000000000000000220000000000000000000000000000000000000000000000000000000000000026000000000000000000000000000000000000000000000000000000000000001a0000000000000000000000000515f3db6c4249919b74ea55915969944fea4b311000000000000000000000000c013f347b64d5a6de839ea9bfa8cd1fbe4163df90000000000000000000000000000000000000000000000000000000000000bb8000000000000000000000000000000000000000000000000000000000000001e00000000000000000000000086ec746eaed03b5216850f8349d97063fcd01440ffffffffffffffffffffffffffffffffffffffffffffffffffffffffffffff8800000000000000000000000000000000000000000000000000000000000000780000000000000000000000000000000000000000000000008ac7230489e8000000000000000000000000000000000000ffffffffffffffffffffffffffffffff00000000000000000000000000000000ffffffffffffffffffffffffffffffff000000000000000000000000f39fd6e51aad88f6f4ce6ab8827279cfffb92266000000000000000000000000000000000000000000000000000000000000018000000000000000000000000000000000000000000000000000000000000000000000000000000000000000000000000000000000000000000000000000000020000000000000000000000000515f3db6c4249919b74ea55915969944fea4b3110000000000000000000000000000000000000000000000000000000000000020000000000000000000000000c013f347b64d5a6de839ea9bfa8cd1fbe4163df9",
        "nonce": "0xb0f",
        "chainId": "0x1"
      },
      "additionalContracts": [],
      "isFixedGasLimit": false
    }
  ],
  "receipts": [
    {
      "status": "0x1",
      "cumulativeGasUsed": "0x1d25b9",
      "logs": [
        {
          "address": "0x86ec746eaed03b5216850f8349d97063fcd01440",
          "topics": [
            "0x8be0079c531659141344cd1fd0a4f28419497f9722a3daafe3b4186f6b6457e0",
            "0x0000000000000000000000000000000000000000000000000000000000000000",
            "0x000000000000000000000000f39fd6e51aad88f6f4ce6ab8827279cfffb92266"
          ],
          "data": "0x",
          "blockHash": "0xa241872176470e84d2ffb9ca243ebfca7bc0b8de7b60aad64a3fe68f1a3b6d74",
          "blockNumber": "0x16391e8",
          "blockTimestamp": "0x68bbe952",
          "transactionHash": "0x600c5c5928c63b397c3f26a6b26a38df575e844449b23d03e62b3583362f7c2b",
          "transactionIndex": "0x0",
          "logIndex": "0x0",
          "removed": false
        }
      ],
      "logsBloom": "0x00000000000000000000000000000000000000000000000000800000000000000000000000000000000000000000000000000000000000000000000000000000000000000000000000000000000000000001000000000000000000000000000000000000020000000000000100000800000000000000000800000000000000400000000000000000000000000000000000000000000000000000000000000000000000010000000000000000000000000000000000000000000020000000000000000000000000200000000000000000000000002000000000000000000020000000000000000000000000000000000000000000000000000000000000000000",
      "type": "0x2",
      "transactionHash": "0x600c5c5928c63b397c3f26a6b26a38df575e844449b23d03e62b3583362f7c2b",
      "transactionIndex": "0x0",
      "blockHash": "0xa241872176470e84d2ffb9ca243ebfca7bc0b8de7b60aad64a3fe68f1a3b6d74",
      "blockNumber": "0x16391e8",
      "gasUsed": "0x1d25b9",
      "effectiveGasPrice": "0x189f91c",
      "blobGasPrice": "0x1",
      "from": "0xf39fd6e51aad88f6f4ce6ab8827279cfffb92266",
      "to": "0x4e59b44847b379578588920ca78fbf26c0b4956c",
      "contractAddress": null
    },
    {
      "status": "0x1",
      "cumulativeGasUsed": "0xb99dc",
      "logs": [],
      "logsBloom": "0x00000000000000000000000000000000000000000000000000000000000000000000000000000000000000000000000000000000000000000000000000000000000000000000000000000000000000000000000000000000000000000000000000000000000000000000000000000000000000000000000000000000000000000000000000000000000000000000000000000000000000000000000000000000000000000000000000000000000000000000000000000000000000000000000000000000000000000000000000000000000000000000000000000000000000000000000000000000000000000000000000000000000000000000000000000000",
      "type": "0x2",
      "transactionHash": "0x26cfe15e60325f7fda983f107b1c4ea5fa921a1378ce1b0d74225e4c37f4600c",
      "transactionIndex": "0x0",
      "blockHash": "0x9bf84f3603ae547e323264b1f6ce911fc1c7511b035f11589d00616be42b6194",
      "blockNumber": "0x16391e9",
      "gasUsed": "0xb99dc",
      "effectiveGasPrice": "0x15edffa",
      "blobGasPrice": "0x1",
      "from": "0xf39fd6e51aad88f6f4ce6ab8827279cfffb92266",
      "to": null,
      "contractAddress": "0xc013f347b64d5a6de839ea9bfa8cd1fbe4163df9"
    },
    {
      "status": "0x1",
      "cumulativeGasUsed": "0xb99dc",
      "logs": [],
      "logsBloom": "0x00000000000000000000000000000000000000000000000000000000000000000000000000000000000000000000000000000000000000000000000000000000000000000000000000000000000000000000000000000000000000000000000000000000000000000000000000000000000000000000000000000000000000000000000000000000000000000000000000000000000000000000000000000000000000000000000000000000000000000000000000000000000000000000000000000000000000000000000000000000000000000000000000000000000000000000000000000000000000000000000000000000000000000000000000000000",
      "type": "0x2",
      "transactionHash": "0xe01dd6d10f6ec92a914e962829b45df87287ca786f95669a910712ccd223bdb0",
      "transactionIndex": "0x0",
      "blockHash": "0xe7f411055c50a4d5dbff06ee163308cd12761c9ccb337723ac0f79d7c9dbfd89",
      "blockNumber": "0x16391ea",
      "gasUsed": "0xb99dc",
      "effectiveGasPrice": "0x136927d",
      "blobGasPrice": "0x1",
      "from": "0xf39fd6e51aad88f6f4ce6ab8827279cfffb92266",
      "to": null,
      "contractAddress": "0x515f3db6c4249919b74ea55915969944fea4b311"
    },
    {
      "status": "0x1",
      "cumulativeGasUsed": "0x10acf",
      "logs": [
        {
          "address": "0xc013f347b64d5a6de839ea9bfa8cd1fbe4163df9",
          "topics": [
            "0xddf252ad1be2c89b69c2b068fc378daa952ba7f163c4a11628f55a4df523b3ef",
            "0x0000000000000000000000000000000000000000000000000000000000000000",
            "0x000000000000000000000000f39fd6e51aad88f6f4ce6ab8827279cfffb92266"
          ],
          "data": "0x00000000000000000000000000000000000000000000d3c21bcecceda1000000",
          "blockHash": "0x2baaa39fadce736a1498ff60b3455377683e0f04a04ce424421228b660b2a715",
          "blockNumber": "0x16391eb",
          "blockTimestamp": "0x68bbe952",
          "transactionHash": "0x3fc865e42a495b7276743acdb1f0f16b6fc820dd94dde04f6da1af9b48cd8fea",
          "transactionIndex": "0x0",
          "logIndex": "0x0",
          "removed": false
        }
      ],
      "logsBloom": "0x00040000000000000000000000000000000000000000000000000000000000000000000000000000000000000000000000000000000000000000000000000000000000000000000000000008000000000000000000000000000000000000000000000000020000000000000100000800000000000000000000000010000000000000000000000000000000000000000000000000000000000000000000200000000000000000000000000000000000000000000000000000000000000000000000000002000000200000000000000000000000002000002000000000000020000000000000000000000000000000000000000000000000000000000000000000",
      "type": "0x2",
      "transactionHash": "0x3fc865e42a495b7276743acdb1f0f16b6fc820dd94dde04f6da1af9b48cd8fea",
      "transactionIndex": "0x0",
      "blockHash": "0x2baaa39fadce736a1498ff60b3455377683e0f04a04ce424421228b660b2a715",
      "blockNumber": "0x16391eb",
      "gasUsed": "0x10acf",
      "effectiveGasPrice": "0x1132311",
      "blobGasPrice": "0x1",
      "from": "0xf39fd6e51aad88f6f4ce6ab8827279cfffb92266",
      "to": "0xc013f347b64d5a6de839ea9bfa8cd1fbe4163df9",
      "contractAddress": null
    },
    {
      "status": "0x1",
      "cumulativeGasUsed": "0x10acf",
      "logs": [
        {
          "address": "0x515f3db6c4249919b74ea55915969944fea4b311",
          "topics": [
            "0xddf252ad1be2c89b69c2b068fc378daa952ba7f163c4a11628f55a4df523b3ef",
            "0x0000000000000000000000000000000000000000000000000000000000000000",
            "0x000000000000000000000000f39fd6e51aad88f6f4ce6ab8827279cfffb92266"
          ],
          "data": "0x00000000000000000000000000000000000000000000d3c21bcecceda1000000",
          "blockHash": "0x6c7314a3b6a819aaec2daa2089e7650c9caa54042f9f8ae9f82bf8666eb04218",
          "blockNumber": "0x16391ec",
          "blockTimestamp": "0x68bbe952",
          "transactionHash": "0xd8d504f81f573a1b06a3d5bdcb4e88c3482ce0ea0daebc24b060edc811b773d9",
          "transactionIndex": "0x0",
          "logIndex": "0x0",
          "removed": false
        }
      ],
      "logsBloom": "0x00000000000000000000000000000000000004000000000000000000000000000000000000000000000000000000000000000000000000000400000000000000000000000000000000000008000000000000000000000000000000000000000000000000020000000000000100000800000000000000000000000010000000000000000000000000000000000000000000000000000000000000000000000000000000000000000000000000000000000000000000000000000000000000000000000002004000200000000000000000000000002000000000000000000020000000000000000000000000000000000000000000000000000000000000000000",
      "type": "0x2",
      "transactionHash": "0xd8d504f81f573a1b06a3d5bdcb4e88c3482ce0ea0daebc24b060edc811b773d9",
      "transactionIndex": "0x0",
      "blockHash": "0x6c7314a3b6a819aaec2daa2089e7650c9caa54042f9f8ae9f82bf8666eb04218",
      "blockNumber": "0x16391ec",
      "gasUsed": "0x10acf",
      "effectiveGasPrice": "0xf2fd16",
      "blobGasPrice": "0x1",
      "from": "0xf39fd6e51aad88f6f4ce6ab8827279cfffb92266",
      "to": "0x515f3db6c4249919b74ea55915969944fea4b311",
      "contractAddress": null
    },
    {
      "status": "0x1",
      "cumulativeGasUsed": "0x8537",
      "logs": [
        {
          "address": "0xc013f347b64d5a6de839ea9bfa8cd1fbe4163df9",
          "topics": [
            "0xddf252ad1be2c89b69c2b068fc378daa952ba7f163c4a11628f55a4df523b3ef",
            "0x0000000000000000000000000000000000000000000000000000000000000000",
            "0x000000000000000000000000f39fd6e51aad88f6f4ce6ab8827279cfffb92266"
          ],
          "data": "0x0000000000000000000000000000000000000000000000056bc75e2d63100000",
          "blockHash": "0x18117244a912d5d2aeca9db253cc1a74d76fb838c0e05ee4e249b2a73316334b",
          "blockNumber": "0x16391ed",
          "blockTimestamp": "0x68bbe952",
          "transactionHash": "0x76aa83d9a84a5dec845c71cfd1ddbeef1fc142d9379bd83ce9e543dbbe4f10b8",
          "transactionIndex": "0x0",
          "logIndex": "0x0",
          "removed": false
        }
      ],
      "logsBloom": "0x00040000000000000000000000000000000000000000000000000000000000000000000000000000000000000000000000000000000000000000000000000000000000000000000000000008000000000000000000000000000000000000000000000000020000000000000100000800000000000000000000000010000000000000000000000000000000000000000000000000000000000000000000200000000000000000000000000000000000000000000000000000000000000000000000000002000000200000000000000000000000002000002000000000000020000000000000000000000000000000000000000000000000000000000000000000",
      "type": "0x2",
      "transactionHash": "0x76aa83d9a84a5dec845c71cfd1ddbeef1fc142d9379bd83ce9e543dbbe4f10b8",
      "transactionIndex": "0x0",
      "blockHash": "0x18117244a912d5d2aeca9db253cc1a74d76fb838c0e05ee4e249b2a73316334b",
      "blockNumber": "0x16391ed",
      "gasUsed": "0x8537",
      "effectiveGasPrice": "0xd6d8ba",
      "blobGasPrice": "0x1",
      "from": "0xf39fd6e51aad88f6f4ce6ab8827279cfffb92266",
      "to": "0xc013f347b64d5a6de839ea9bfa8cd1fbe4163df9",
      "contractAddress": null
    },
    {
      "status": "0x1",
      "cumulativeGasUsed": "0x8537",
      "logs": [
        {
          "address": "0x515f3db6c4249919b74ea55915969944fea4b311",
          "topics": [
            "0xddf252ad1be2c89b69c2b068fc378daa952ba7f163c4a11628f55a4df523b3ef",
            "0x0000000000000000000000000000000000000000000000000000000000000000",
            "0x000000000000000000000000f39fd6e51aad88f6f4ce6ab8827279cfffb92266"
          ],
          "data": "0x0000000000000000000000000000000000000000000000056bc75e2d63100000",
          "blockHash": "0xdab0df813067a9f15b15ecd778704c25889a73d5966379ba073a3c35c6c9b307",
          "blockNumber": "0x16391ee",
          "blockTimestamp": "0x68bbe952",
          "transactionHash": "0x94ede5e05113ec1c94f80fc9b65d67aaa74a4fbaa8b70f8af5886f871f282b85",
          "transactionIndex": "0x0",
          "logIndex": "0x0",
          "removed": false
        }
      ],
      "logsBloom": "0x00000000000000000000000000000000000004000000000000000000000000000000000000000000000000000000000000000000000000000400000000000000000000000000000000000008000000000000000000000000000000000000000000000000020000000000000100000800000000000000000000000010000000000000000000000000000000000000000000000000000000000000000000000000000000000000000000000000000000000000000000000000000000000000000000000002004000200000000000000000000000002000000000000000000020000000000000000000000000000000000000000000000000000000000000000000",
      "type": "0x2",
      "transactionHash": "0x94ede5e05113ec1c94f80fc9b65d67aaa74a4fbaa8b70f8af5886f871f282b85",
      "transactionIndex": "0x0",
      "blockHash": "0xdab0df813067a9f15b15ecd778704c25889a73d5966379ba073a3c35c6c9b307",
      "blockNumber": "0x16391ee",
      "gasUsed": "0x8537",
      "effectiveGasPrice": "0xbe2c8d",
      "blobGasPrice": "0x1",
      "from": "0xf39fd6e51aad88f6f4ce6ab8827279cfffb92266",
      "to": "0x515f3db6c4249919b74ea55915969944fea4b311",
      "contractAddress": null
    },
    {
      "status": "0x1",
      "cumulativeGasUsed": "0xb55b",
      "logs": [
        {
          "address": "0xc013f347b64d5a6de839ea9bfa8cd1fbe4163df9",
          "topics": [
            "0x8c5be1e5ebec7d5bd14f71427d1e84f3dd0314c0f7b2291e5b200ac8c7c3b925",
            "0x000000000000000000000000f39fd6e51aad88f6f4ce6ab8827279cfffb92266",
            "0x000000000000000000000000000000000022d473030f116ddee9f6b43ac78ba3"
          ],
          "data": "0xffffffffffffffffffffffffffffffffffffffffffffffffffffffffffffffff",
          "blockHash": "0x576b5d99c1f4b6c16c664c97678575016765af62838f6f31977b5643f164b3aa",
          "blockNumber": "0x16391ef",
          "blockTimestamp": "0x68bbe952",
          "transactionHash": "0x3a0577dbc8762f3a36ce4bd2181db0aa9088f156695306ec9344143b20493ac2",
          "transactionIndex": "0x0",
          "logIndex": "0x0",
          "removed": false
        }
      ],
      "logsBloom": "0x00040000000000000000000000000000000000000000000000000000000000000000000000000000000000000000000000000000800000000000000000200000000000000000000000004000000000000000000000000800000000000000000000000000000000000000000100000000000000000000000000000000000000000000000000000000000000000000000000000000000000000000000000200000020000000000000000000000000000000000000000000000000000000000000000000000000000200000000000000000000000002000002000000000000000000010000000000000000000000000000000000000000000000000000000000000",
      "type": "0x2",
      "transactionHash": "0x3a0577dbc8762f3a36ce4bd2181db0aa9088f156695306ec9344143b20493ac2",
      "transactionIndex": "0x0",
      "blockHash": "0x576b5d99c1f4b6c16c664c97678575016765af62838f6f31977b5643f164b3aa",
      "blockNumber": "0x16391ef",
      "gasUsed": "0xb55b",
      "effectiveGasPrice": "0xa894b3",
      "blobGasPrice": "0x1",
      "from": "0xf39fd6e51aad88f6f4ce6ab8827279cfffb92266",
      "to": "0xc013f347b64d5a6de839ea9bfa8cd1fbe4163df9",
      "contractAddress": null
    },
    {
      "status": "0x1",
      "cumulativeGasUsed": "0xb55b",
      "logs": [
        {
          "address": "0x515f3db6c4249919b74ea55915969944fea4b311",
          "topics": [
            "0x8c5be1e5ebec7d5bd14f71427d1e84f3dd0314c0f7b2291e5b200ac8c7c3b925",
            "0x000000000000000000000000f39fd6e51aad88f6f4ce6ab8827279cfffb92266",
            "0x000000000000000000000000000000000022d473030f116ddee9f6b43ac78ba3"
          ],
          "data": "0xffffffffffffffffffffffffffffffffffffffffffffffffffffffffffffffff",
          "blockHash": "0x74dbb1886475e78e6e88ef5f7e2d5e981dd85c58a46f19f1d567c18f6dd72dcd",
          "blockNumber": "0x16391f0",
          "blockTimestamp": "0x68bbe952",
          "transactionHash": "0x2b702e7ae49d66419020f5d7a04963784b265d4c3970384efc3d242bf342a2bd",
          "transactionIndex": "0x0",
          "logIndex": "0x0",
          "removed": false
        }
      ],
      "logsBloom": "0x00000000000000000000000000000000000004000000000000000000000000000000000000000000000000000000000000000000800000000400000000200000000000000000000000004000000000000000000000000800000000000000000000000000000000000000000100000000000000000000000000000000000000000000000000000000000000000000000000000000000000000000000000000000020000000000000000000000000000000000000000000000000000000000000000000000004000200000000000000000000000002000000000000000000000000010000000000000000000000000000000000000000000000000000000000000",
      "type": "0x2",
      "transactionHash": "0x2b702e7ae49d66419020f5d7a04963784b265d4c3970384efc3d242bf342a2bd",
      "transactionIndex": "0x0",
      "blockHash": "0x74dbb1886475e78e6e88ef5f7e2d5e981dd85c58a46f19f1d567c18f6dd72dcd",
      "blockNumber": "0x16391f0",
      "gasUsed": "0xb55b",
      "effectiveGasPrice": "0x95b170",
      "blobGasPrice": "0x1",
      "from": "0xf39fd6e51aad88f6f4ce6ab8827279cfffb92266",
      "to": "0x515f3db6c4249919b74ea55915969944fea4b311",
      "contractAddress": null
    },
    {
      "status": "0x1",
      "cumulativeGasUsed": "0xbaca",
      "logs": [
        {
          "address": "0x000000000022d473030f116ddee9f6b43ac78ba3",
          "topics": [
            "0xda9fa7c1b00402c17d0161b249b1ab8bbec047c5a52207b9c112deffd817036b",
            "0x000000000000000000000000f39fd6e51aad88f6f4ce6ab8827279cfffb92266",
            "0x000000000000000000000000c013f347b64d5a6de839ea9bfa8cd1fbe4163df9",
            "0x000000000000000000000000bd216513d74c8cf14cf4747e6aaa6420ff64ee9e"
          ],
          "data": "0x000000000000000000000000ffffffffffffffffffffffffffffffffffffffff0000000000000000000000000000000000000000000000000000ffffffffffff",
          "blockHash": "0xcecf030153ac9c18d5822a1ad6060224d93382b4225c0ab5ef3fe27f3bd04d3a",
          "blockNumber": "0x16391f1",
          "blockTimestamp": "0x68bbe952",
          "transactionHash": "0x4ce7f9d129041a9ba9829138422da056d8aeab1eaa90d3d6a089cbda600ee06d",
          "transactionIndex": "0x0",
          "logIndex": "0x0",
          "removed": false
        }
      ],
      "logsBloom": "0x00010040000000000000000000000000000000000000000000000000000000000000000000000000000000000000000400000000000000000000000000080000000000000000000000000000000000000000000000000000000000000000000000000000080000000000000100000000000000000000000000000000100000000020000000000000000000000000000800000000000000000000000000000000000000000000000000000000000000000000000000000800000000080000000000000000000000200000000000000000000000002000000040000000000000000000000000000000000000000000000000000000000000000000000000000400",
      "type": "0x2",
      "transactionHash": "0x4ce7f9d129041a9ba9829138422da056d8aeab1eaa90d3d6a089cbda600ee06d",
      "transactionIndex": "0x0",
      "blockHash": "0xcecf030153ac9c18d5822a1ad6060224d93382b4225c0ab5ef3fe27f3bd04d3a",
      "blockNumber": "0x16391f1",
      "gasUsed": "0xbaca",
      "effectiveGasPrice": "0x852956",
      "blobGasPrice": "0x1",
      "from": "0xf39fd6e51aad88f6f4ce6ab8827279cfffb92266",
      "to": "0x000000000022d473030f116ddee9f6b43ac78ba3",
      "contractAddress": null
    },
    {
      "status": "0x1",
      "cumulativeGasUsed": "0xbaca",
      "logs": [
        {
          "address": "0x000000000022d473030f116ddee9f6b43ac78ba3",
          "topics": [
            "0xda9fa7c1b00402c17d0161b249b1ab8bbec047c5a52207b9c112deffd817036b",
            "0x000000000000000000000000f39fd6e51aad88f6f4ce6ab8827279cfffb92266",
            "0x000000000000000000000000515f3db6c4249919b74ea55915969944fea4b311",
            "0x000000000000000000000000bd216513d74c8cf14cf4747e6aaa6420ff64ee9e"
          ],
          "data": "0x000000000000000000000000ffffffffffffffffffffffffffffffffffffffff0000000000000000000000000000000000000000000000000000ffffffffffff",
          "blockHash": "0x85cc908b4c8455ab322655cee78ca5a2eca1e8d55226aa6312db96b856cb5711",
          "blockNumber": "0x16391f2",
          "blockTimestamp": "0x68bbe952",
          "transactionHash": "0xa5efd68b4411d21ff5b23ffbe0ac8d498222444a1a3ea5af8c6ae6e551e8d396",
          "transactionIndex": "0x0",
          "logIndex": "0x0",
          "removed": false
        }
      ],
      "logsBloom": "0x00010040000000040000000000000000000000000000000000000000000000000000000000000000000000080000000400000000000000000000000000080000000000000000000000000000000000000000000000000000000000000000000000000000000000000000000100000000000000100000000000000000100000000020000000000000000000000000000000000000000000000000000000000000000000000000000000000000000000000000000000000000000000080000000000000000000000200000000000000000000000002000000040000000000000000000000000000000000000000000000000000000000000000000000000000400",
      "type": "0x2",
      "transactionHash": "0xa5efd68b4411d21ff5b23ffbe0ac8d498222444a1a3ea5af8c6ae6e551e8d396",
      "transactionIndex": "0x0",
      "blockHash": "0x85cc908b4c8455ab322655cee78ca5a2eca1e8d55226aa6312db96b856cb5711",
      "blockNumber": "0x16391f2",
      "gasUsed": "0xbaca",
      "effectiveGasPrice": "0x76b162",
      "blobGasPrice": "0x1",
      "from": "0xf39fd6e51aad88f6f4ce6ab8827279cfffb92266",
      "to": "0x000000000022d473030f116ddee9f6b43ac78ba3",
      "contractAddress": null
    },
    {
      "status": "0x1",
      "cumulativeGasUsed": "0xe5c7",
      "logs": [
        {
          "address": "0x000000000004444c5dc75cb358380d2e3de08a90",
          "topics": [
            "0xdd466e674ea557f56295e2d0218a125ea4b4f0f6f3307b95f85e6110838d6438",
            "0xefcb3ce22cf7375e66436c624fa0b20e3e269c03a74810bf0ba88185bdd48e29",
            "0x000000000000000000000000515f3db6c4249919b74ea55915969944fea4b311",
            "0x000000000000000000000000c013f347b64d5a6de839ea9bfa8cd1fbe4163df9"
          ],
          "data": "0x0000000000000000000000000000000000000000000000000000000000000bb8000000000000000000000000000000000000000000000000000000000000001e00000000000000000000000086ec746eaed03b5216850f8349d97063fcd0144000000000000000000000000000000000000000010000000000000000000000000000000000000000000000000000000000000000000000000000000000000000",
          "blockHash": "0x8875320d05080d29c06bce1813ae2ccd8f29f77261131621cb48ccfdc698ca90",
          "blockNumber": "0x16391f3",
          "blockTimestamp": "0x68bbe952",
          "transactionHash": "0xb623ba356ca1f6962a227d295f0ec30ed01ee8b865a74ee0f501e56c6995e9ba",
          "transactionIndex": "0x0",
          "logIndex": "0x0",
          "removed": false
        }
      ],
      "logsBloom": "0x00000000000000040000000000000000000000000000000000000000000000000000000020000000000000080000000000000000000000000000000000000000000000000000000000000000000000000000000000000000000000000000004000000000080000000000000000000000000000100000000000000000000000000000000000000008000000000000000800000001000000000000000000200000000000000000000000000000100000000000000000000800000000000000000000000800000000000020000000000000000000000000000000000000000000000000000000000000020000000000000000000000000000000000000000000000",
      "type": "0x2",
      "transactionHash": "0xb623ba356ca1f6962a227d295f0ec30ed01ee8b865a74ee0f501e56c6995e9ba",
      "transactionIndex": "0x0",
      "blockHash": "0x8875320d05080d29c06bce1813ae2ccd8f29f77261131621cb48ccfdc698ca90",
      "blockNumber": "0x16391f3",
      "gasUsed": "0xe5c7",
      "effectiveGasPrice": "0x6a0771",
      "blobGasPrice": "0x1",
      "from": "0xf39fd6e51aad88f6f4ce6ab8827279cfffb92266",
      "to": "0x000000000004444c5dc75cb358380d2e3de08a90",
      "contractAddress": null
    },
    {
      "status": "0x1",
      "cumulativeGasUsed": "0x75267",
      "logs": [
        {
          "address": "0xbd216513d74c8cf14cf4747e6aaa6420ff64ee9e",
          "topics": [
            "0xddf252ad1be2c89b69c2b068fc378daa952ba7f163c4a11628f55a4df523b3ef",
            "0x0000000000000000000000000000000000000000000000000000000000000000",
            "0x000000000000000000000000f39fd6e51aad88f6f4ce6ab8827279cfffb92266",
            "0x000000000000000000000000000000000000000000000000000000000000ef3e"
          ],
          "data": "0x",
          "blockHash": "0x6b4ebc858196dc703fa025a1d8cbc20ca6e1872542770a0aa86289b484b06bb7",
          "blockNumber": "0x16391f4",
          "blockTimestamp": "0x68bbe952",
          "transactionHash": "0x9c85e5dfd51c94a1ca7a3422048587e62a81e07df49959736d6f5928a7af4be8",
          "transactionIndex": "0x0",
          "logIndex": "0x0",
          "removed": false
        },
        {
          "address": "0x000000000004444c5dc75cb358380d2e3de08a90",
          "topics": [
            "0xf208f4912782fd25c7f114ca3723a2d5dd6f3bcc3ac8db5af63baa85f711d5ec",
            "0xefcb3ce22cf7375e66436c624fa0b20e3e269c03a74810bf0ba88185bdd48e29",
            "0x000000000000000000000000bd216513d74c8cf14cf4747e6aaa6420ff64ee9e"
          ],
          "data": "0xffffffffffffffffffffffffffffffffffffffffffffffffffffffffffffffc4000000000000000000000000000000000000000000000000000000000000003c0000000000000000000000000000000000000000000000008ac7230489e80000000000000000000000000000000000000000000000000000000000000000ef3e",
          "blockHash": "0x6b4ebc858196dc703fa025a1d8cbc20ca6e1872542770a0aa86289b484b06bb7",
          "blockNumber": "0x16391f4",
          "blockTimestamp": "0x68bbe952",
          "transactionHash": "0x9c85e5dfd51c94a1ca7a3422048587e62a81e07df49959736d6f5928a7af4be8",
          "transactionIndex": "0x0",
          "logIndex": "0x1",
          "removed": false
        },
        {
          "address": "0x515f3db6c4249919b74ea55915969944fea4b311",
          "topics": [
            "0xddf252ad1be2c89b69c2b068fc378daa952ba7f163c4a11628f55a4df523b3ef",
            "0x000000000000000000000000f39fd6e51aad88f6f4ce6ab8827279cfffb92266",
            "0x000000000000000000000000000000000004444c5dc75cb358380d2e3de08a90"
          ],
          "data": "0x000000000000000000000000000000000000000000000000006a6a98393b90e2",
          "blockHash": "0x6b4ebc858196dc703fa025a1d8cbc20ca6e1872542770a0aa86289b484b06bb7",
          "blockNumber": "0x16391f4",
          "blockTimestamp": "0x68bbe952",
          "transactionHash": "0x9c85e5dfd51c94a1ca7a3422048587e62a81e07df49959736d6f5928a7af4be8",
          "transactionIndex": "0x0",
          "logIndex": "0x2",
          "removed": false
        },
        {
          "address": "0xc013f347b64d5a6de839ea9bfa8cd1fbe4163df9",
          "topics": [
            "0xddf252ad1be2c89b69c2b068fc378daa952ba7f163c4a11628f55a4df523b3ef",
            "0x000000000000000000000000f39fd6e51aad88f6f4ce6ab8827279cfffb92266",
            "0x000000000000000000000000000000000004444c5dc75cb358380d2e3de08a90"
          ],
          "data": "0x000000000000000000000000000000000000000000000000006a6a98393b90e2",
          "blockHash": "0x6b4ebc858196dc703fa025a1d8cbc20ca6e1872542770a0aa86289b484b06bb7",
          "blockNumber": "0x16391f4",
          "blockTimestamp": "0x68bbe952",
          "transactionHash": "0x9c85e5dfd51c94a1ca7a3422048587e62a81e07df49959736d6f5928a7af4be8",
          "transactionIndex": "0x0",
          "logIndex": "0x3",
          "removed": false
        }
      ],
      "logsBloom": "0x00040060000000000000000000000000000004000000000000000000000400000000000020000000001000000000000400000000000000000400000000000000000000000000000000000008000000000000000000000000000000000000004000000000020000000000000100000800000000080000000000000010100008000000000801000000000000000000000000000000000000000000000000200000000004000000000000000000100000000000000000000000000000000000000000000a02004000200020000000000000000000402000002000000000000020000000000000008000020000000000000004000000000000000000000000000000",
      "type": "0x2",
      "transactionHash": "0x9c85e5dfd51c94a1ca7a3422048587e62a81e07df49959736d6f5928a7af4be8",
      "transactionIndex": "0x0",
      "blockHash": "0x6b4ebc858196dc703fa025a1d8cbc20ca6e1872542770a0aa86289b484b06bb7",
      "blockNumber": "0x16391f4",
      "gasUsed": "0x75267",
      "effectiveGasPrice": "0x5ef345",
      "blobGasPrice": "0x1",
      "from": "0xf39fd6e51aad88f6f4ce6ab8827279cfffb92266",
      "to": "0xbd216513d74c8cf14cf4747e6aaa6420ff64ee9e",
      "contractAddress": null
    },
    {
      "status": "0x1",
      "cumulativeGasUsed": "0x48029",
      "logs": [
        {
          "address": "0xbd216513d74c8cf14cf4747e6aaa6420ff64ee9e",
          "topics": [
            "0xddf252ad1be2c89b69c2b068fc378daa952ba7f163c4a11628f55a4df523b3ef",
            "0x0000000000000000000000000000000000000000000000000000000000000000",
            "0x000000000000000000000000f39fd6e51aad88f6f4ce6ab8827279cfffb92266",
            "0x000000000000000000000000000000000000000000000000000000000000ef3f"
          ],
          "data": "0x",
          "blockHash": "0x59659849d55bde6938f9ee6c5beb22bd2ba6a56d7566e4f68942760c4b475b48",
          "blockNumber": "0x16391f5",
          "blockTimestamp": "0x68bbe952",
          "transactionHash": "0x44f274a96d4be3e27769c44f023bf4279922548642d322d5db41efae5c0e7a9f",
          "transactionIndex": "0x0",
          "logIndex": "0x0",
          "removed": false
        },
        {
          "address": "0x000000000004444c5dc75cb358380d2e3de08a90",
          "topics": [
            "0xf208f4912782fd25c7f114ca3723a2d5dd6f3bcc3ac8db5af63baa85f711d5ec",
            "0xefcb3ce22cf7375e66436c624fa0b20e3e269c03a74810bf0ba88185bdd48e29",
            "0x000000000000000000000000bd216513d74c8cf14cf4747e6aaa6420ff64ee9e"
          ],
          "data": "0xffffffffffffffffffffffffffffffffffffffffffffffffffffffffffffff8800000000000000000000000000000000000000000000000000000000000000780000000000000000000000000000000000000000000000008ac7230489e80000000000000000000000000000000000000000000000000000000000000000ef3f",
          "blockHash": "0x59659849d55bde6938f9ee6c5beb22bd2ba6a56d7566e4f68942760c4b475b48",
          "blockNumber": "0x16391f5",
          "blockTimestamp": "0x68bbe952",
          "transactionHash": "0x44f274a96d4be3e27769c44f023bf4279922548642d322d5db41efae5c0e7a9f",
          "transactionIndex": "0x0",
          "logIndex": "0x1",
          "removed": false
        },
        {
          "address": "0x515f3db6c4249919b74ea55915969944fea4b311",
          "topics": [
            "0xddf252ad1be2c89b69c2b068fc378daa952ba7f163c4a11628f55a4df523b3ef",
            "0x000000000000000000000000f39fd6e51aad88f6f4ce6ab8827279cfffb92266",
            "0x000000000000000000000000000000000004444c5dc75cb358380d2e3de08a90"
          ],
          "data": "0x00000000000000000000000000000000000000000000000000d48396878c14b2",
          "blockHash": "0x59659849d55bde6938f9ee6c5beb22bd2ba6a56d7566e4f68942760c4b475b48",
          "blockNumber": "0x16391f5",
          "blockTimestamp": "0x68bbe952",
          "transactionHash": "0x44f274a96d4be3e27769c44f023bf4279922548642d322d5db41efae5c0e7a9f",
          "transactionIndex": "0x0",
          "logIndex": "0x2",
          "removed": false
        },
        {
          "address": "0xc013f347b64d5a6de839ea9bfa8cd1fbe4163df9",
          "topics": [
            "0xddf252ad1be2c89b69c2b068fc378daa952ba7f163c4a11628f55a4df523b3ef",
            "0x000000000000000000000000f39fd6e51aad88f6f4ce6ab8827279cfffb92266",
            "0x000000000000000000000000000000000004444c5dc75cb358380d2e3de08a90"
          ],
          "data": "0x00000000000000000000000000000000000000000000000000d48396878c14b2",
          "blockHash": "0x59659849d55bde6938f9ee6c5beb22bd2ba6a56d7566e4f68942760c4b475b48",
          "blockNumber": "0x16391f5",
          "blockTimestamp": "0x68bbe952",
          "transactionHash": "0x44f274a96d4be3e27769c44f023bf4279922548642d322d5db41efae5c0e7a9f",
          "transactionIndex": "0x0",
          "logIndex": "0x3",
          "removed": false
        }
      ],
      "logsBloom": "0x00040040000000000000000000000000000004000000000000000000000000000000000020000000001000000000000400000000000000000400000000000000000200000000000000000008000000000000000000000000000000000000004000000000020000000000000100000800000000080000000000000010100008000000000801000000000000000000000000000000000000000000000000200000000004000000000000000000100000000000000200000000000000000000000000000802004000200020000000000000000000402000002000000000000020000000000000008000820000000000000004000000000000000000000000000000",
      "type": "0x2",
      "transactionHash": "0x44f274a96d4be3e27769c44f023bf4279922548642d322d5db41efae5c0e7a9f",
      "transactionIndex": "0x0",
      "blockHash": "0x59659849d55bde6938f9ee6c5beb22bd2ba6a56d7566e4f68942760c4b475b48",
      "blockNumber": "0x16391f5",
      "gasUsed": "0x48029",
      "effectiveGasPrice": "0x556f51",
      "blobGasPrice": "0x1",
      "from": "0xf39fd6e51aad88f6f4ce6ab8827279cfffb92266",
      "to": "0xbd216513d74c8cf14cf4747e6aaa6420ff64ee9e",
      "contractAddress": null
    }
  ],
  "libraries": [],
  "pending": [],
  "returns": {},
  "timestamp": 1757153538,
  "chain": 1,
  "commit": "23375f1"
}