{
  "transactions": [
    {
      "hash": "0x4070c07dedbc49ce2a7dea257df694ea1212ff1096db9af8b6464fdce2203d01",
      "transactionType": "CREATE2",
      "contractName": "LPRebalanceHook",
      "contractAddress": "0x6e126f1e9db9e7d0ecce19eff10806a96e9b1440",
      "function": null,
      "arguments": [
        "0xE03A1074c86CFeDd5C142C4F04F1a1536e203543",
        "0x86464c77dd1f62dA93b7bC38090A2D2504DA5547"
      ],
      "transaction": {
        "from": "0x86464c77dd1f62da93b7bc38090a2d2504da5547",
        "to": "0x4e59b44847b379578588920ca78fbf26c0b4956c",
        "gas": "0x1c59d1",
        "value": "0x0",
        "input": "0x000000000000000000000000000000000000000000000000000000000001a7e360a060405260015f55600580546001600160801b031916610258179055348015610027575f80fd5b506040516119c03803806119c08339810160408190526100469161035d565b6001600160a01b038216608052808261005e3061009d565b506001600160a01b03811661008c57604051631e4fbdf760e01b81525f600482015260240160405180910390fd5b61009581610193565b505050610395565b6101908161018b604080516101c0810182525f80825260208201819052918101829052606081018290526080810182905260a0810182905260c0810182905260e08101829052610100810182905261012081018290526101408101829052610160810182905261018081018290526101a081019190915250604080516101c0810182525f808252600160208301819052928201819052606082018390526080820181905260a0820181905260c0820181905260e0820192909252610100810182905261012081018290526101408101829052610160810182905261018081018290526101a081019190915290565b6101e4565b50565b600180546001600160a01b038381166001600160a01b0319831681179093556040519116919082907f8be0079c531659141344cd1fd0a4f28419497f9722a3daafe3b4186f6b6457e0905f90a35050565b80511515612000831615151415806102085750602081015115156110008316151514155b8061021f5750604081015115156108008316151514155b806102365750606081015115156104008316151514155b8061024d5750608081015115156102008316151514155b80610264575060a081015115156101008316151514155b8061027a575060c0810151151560808316151514155b80610290575060e0810151151560408316151514155b806102a75750610100810151151560208316151514155b806102be5750610120810151151560108316151514155b806102d55750610140810151151560088316151514155b806102ec5750610160810151151560048316151514155b806103035750610180810151151560028316151514155b8061031a57506101a0810151151560018316151514155b1561033057610330630732d7b560e51b83610334565b5050565b815f526001600160a01b03811660045260245ffd5b6001600160a01b0381168114610190575f80fd5b5f806040838503121561036e575f80fd5b825161037981610349565b602084015190925061038a81610349565b809150509250929050565b6080516115cd6103f35f395f818161047b015281816104f101528181610554015281816105d8015281816106160152818161067f015281816106f40152818161076301528181610842015281816108a9015261094301526115cd5ff3fe608060405234801561000f575f80fd5b5060043610610184575f3560e01c8063b41f4fcb116100dd578063d598d4c911610088578063e1b4af6911610063578063e1b4af6914610314578063e4cbfea5146104b0578063f2fde38b146104d2575f80fd5b8063d598d4c914610463578063dc4c90d314610476578063dc98354e1461049d575f80fd5b8063bf8bdac1116100b8578063bf8bdac114610327578063c30184b71461033a578063c4e833ce1461036c575f80fd5b8063b41f4fcb146102cb578063b47b2fb1146102de578063b6a8b0fa14610314575f80fd5b80636fe7e6eb1161013d5780638da5cb5b116101185780638da5cb5b146102805780638f6e6878146102a55780639f063efc146102b8575f80fd5b80636fe7e6eb14610250578063715018a61461026357806381ab579a1461026d575f80fd5b8063575e24b41161016d578063575e24b4146101b95780635f105e2d146101f75780636c2bbe7e1461021d575f80fd5b806321d0ee7014610188578063259982e514610188575b5f80fd5b61019b610196366004610ee4565b6104e5565b6040516001600160e01b031990911681526020015b60405180910390f35b6101cc6101c7366004610f6b565b610546565b604080516001600160e01b03199094168452602084019290925262ffffff16908201526060016101b0565b61020a610205366004610fc5565b6105b0565b60405160029190910b81526020016101b0565b61023061022b366004610fe6565b610609565b604080516001600160e01b031990931683526020830191909152016101b0565b61019b61025e366004611082565b610673565b61026b6106d2565b005b61020a61027b3660046110d9565b6106e5565b6001546001600160a01b03165b6040516001600160a01b0390911681526020016101b0565b61026b6102b33660046110f0565b61071a565b6102306102c6366004610fe6565b610756565b61020a6102d936600461111f565b6107af565b6102f16102ec366004611150565b610835565b604080516001600160e01b03199093168352600f9190910b6020830152016101b0565b61019b6103223660046111d1565b61089d565b61026b61033536600461122b565b610900565b61035c6103483660046110d9565b60026020525f908152604090205460ff1681565b60405190151581526020016101b0565b610456604080516101c0810182525f80825260208201819052918101829052606081018290526080810182905260a0810182905260c0810182905260e08101829052610100810182905261012081018290526101408101829052610160810182905261018081018290526101a081019190915250604080516101c0810182525f808252600160208301819052928201819052606082018390526080820181905260a0820181905260c0820181905260e0820192909252610100810182905261012081018290526101408101829052610160810182905261018081018290526101a081019190915290565b6040516101b09190611246565b60045461028d906001600160a01b031681565b61028d7f000000000000000000000000000000000000000000000000000000000000000081565b61019b6104ab366004611367565b610937565b61020a6104be3660046110d9565b60036020525f908152604090205460020b81565b61026b6104e036600461122b565b610994565b5f336001600160a01b037f0000000000000000000000000000000000000000000000000000000000000000161461052f5760405163570c108560e11b815260040160405180910390fd5b61053c86868686866109d6565b9695505050505050565b5f8080336001600160a01b037f000000000000000000000000000000000000000000000000000000000000000016146105925760405163570c108560e11b815260040160405180910390fd5b61059f88888888886109f0565b925092509250955095509592505050565b5f806105fe6105ce6105c7368690038601866113c0565b60a0902090565b6001600160a01b037f00000000000000000000000000000000000000000000000000000000000000001690610a0c565b509095945050505050565b5f80336001600160a01b037f000000000000000000000000000000000000000000000000000000000000000016146106545760405163570c108560e11b815260040160405180910390fd5b61066389898989898989610abe565b9150915097509795505050505050565b5f336001600160a01b037f000000000000000000000000000000000000000000000000000000000000000016146106bd5760405163570c108560e11b815260040160405180910390fd5b6106c985858585610ad9565b95945050505050565b6106da610b26565b6106e35f610b53565b565b5f806105fe6001600160a01b037f00000000000000000000000000000000000000000000000000000000000000001684610a0c565b610722610b26565b600580546fffffffffffffffffffffffffffffffff19166fffffffffffffffffffffffffffffffff92909216919091179055565b5f80336001600160a01b037f000000000000000000000000000000000000000000000000000000000000000016146107a15760405163570c108560e11b815260040160405180910390fd5b6327c18fbf60e21b5f610663565b5f806107bb8385611482565b90505f8460020b1280156107da57506107d483856114ba565b60020b15155b156107f157806107e9816114db565b915050610821565b5f8460020b13801561080e575061080883856114ba565b60020b15155b15610821578061081d816114fc565b9150505b61082b838261151c565b9150505b92915050565b5f80336001600160a01b037f000000000000000000000000000000000000000000000000000000000000000016146108805760405163570c108560e11b815260040160405180910390fd5b61088e888888888888610bb1565b91509150965096945050505050565b5f336001600160a01b037f000000000000000000000000000000000000000000000000000000000000000016146108e75760405163570c108560e11b815260040160405180910390fd5b6108f58787878787876109d6565b979650505050505050565b610908610b26565b6004805473ffffffffffffffffffffffffffffffffffffffff19166001600160a01b0392909216919091179055565b5f336001600160a01b037f000000000000000000000000000000000000000000000000000000000000000016146109815760405163570c108560e11b815260040160405180910390fd5b61098c8484846109d6565b949350505050565b61099c610b26565b6001600160a01b0381166109ca57604051631e4fbdf760e01b81525f60048201526024015b60405180910390fd5b6109d381610b53565b50565b5f604051630a85dc2960e01b815260040160405180910390fd5b5f805f604051630a85dc2960e01b815260040160405180910390fd5b5f805f805f610a1a86610e19565b604051631e2eaeaf60e01b8152600481018290529091505f906001600160a01b03891690631e2eaeaf90602401602060405180830381865afa158015610a62573d5f803e3d5ffd5b505050506040513d601f19601f82011682018060405250810190610a86919061153b565b90506001600160a01b03811695508060a01c60020b945062ffffff8160b81c16935062ffffff8160d01c169250505092959194509250565b5f80604051630a85dc2960e01b815260040160405180910390fd5b5f81600382610af06105c7368990038901896113c0565b815260208101919091526040015f20805462ffffff191662ffffff9290921691909117905550636fe7e6eb60e01b949350505050565b6001546001600160a01b031633146106e35760405163118cdaa760e01b81523360048201526024016109c1565b600180546001600160a01b0383811673ffffffffffffffffffffffffffffffffffffffff19831681179093556040519116919082907f8be0079c531659141344cd1fd0a4f28419497f9722a3daafe3b4186f6b6457e0905f90a35050565b5f8080610bc96105ce6105c7368b90038b018b6113c0565b50509150505f60035f610be68b8036038101906105c791906113c0565b815260208101919091526040015f9081205460020b91508290600390610c146105c7368e90038e018e6113c0565b815260208101919091526040015f20805462ffffff191662ffffff929092169190911790556004546001600160a01b0316610c72576040517ffe4886e0ba8a28ab70816a9bda1847e96bb109f01ef245482b90bf402a22e052905f90a15b6004546001600160a01b031615610e01576005545f90610ca4906fffffffffffffffffffffffffffffffff1642611552565b6040805160a081019091529091505f9080610cc260208e018e61122b565b6001600160a01b031681526020018c6020016020810190610ce3919061122b565b6001600160a01b03168152602001610d0160608e0160408f01611565565b62ffffff168152602001610d1b60808e0160608f0161157e565b60020b81523060209091015290505f610d3c6105c7368e90038e018e6113c0565b6004805460408051635390ab4b60e11b815286516001600160a01b03908116948201949094526020870151841660248201529086015162ffffff1660448201526060860151600290810b606483015260808701518416608483015288900b60a482015260c4810187905260e48101849052929350169063a721569690610104016020604051808303815f875af1158015610dd8573d5f803e3d5ffd5b505050506040513d601f19601f82011682018060405250810190610dfc919061153b565b505050505b5063b47b2fb160e01b995f9950975050505050505050565b6040515f90610e38908390600690602001918252602082015260400190565b604051602081830303815290604052805190602001209050919050565b6001600160a01b03811681146109d3575f80fd5b8035610e7481610e55565b919050565b5f60a08284031215610e89575f80fd5b50919050565b5f60808284031215610e89575f80fd5b5f8083601f840112610eaf575f80fd5b50813567ffffffffffffffff811115610ec6575f80fd5b602083019150836020828501011115610edd575f80fd5b9250929050565b5f805f805f6101608688031215610ef9575f80fd5b8535610f0481610e55565b9450610f138760208801610e79565b9350610f228760c08801610e8f565b925061014086013567ffffffffffffffff811115610f3e575f80fd5b610f4a88828901610e9f565b969995985093965092949392505050565b5f60608284031215610e89575f80fd5b5f805f805f6101408688031215610f80575f80fd5b8535610f8b81610e55565b9450610f9a8760208801610e79565b9350610fa98760c08801610f5b565b925061012086013567ffffffffffffffff811115610f3e575f80fd5b5f60a08284031215610fd5575f80fd5b610fdf8383610e79565b9392505050565b5f805f805f805f6101a0888a031215610ffd575f80fd5b873561100881610e55565b96506110178960208a01610e79565b95506110268960c08a01610e8f565b94506101408801359350610160880135925061018088013567ffffffffffffffff811115611052575f80fd5b61105e8a828b01610e9f565b989b979a50959850939692959293505050565b8035600281900b8114610e74575f80fd5b5f805f806101008587031215611096575f80fd5b84356110a181610e55565b93506110b08660208701610e79565b925060c08501356110c081610e55565b91506110ce60e08601611071565b905092959194509250565b5f602082840312156110e9575f80fd5b5035919050565b5f60208284031215611100575f80fd5b81356fffffffffffffffffffffffffffffffff81168114610fdf575f80fd5b5f8060408385031215611130575f80fd5b61113983611071565b915061114760208401611071565b90509250929050565b5f805f805f806101608789031215611166575f80fd5b863561117181610e55565b95506111808860208901610e79565b945061118f8860c08901610f5b565b9350610120870135925061014087013567ffffffffffffffff8111156111b3575f80fd5b6111bf89828a01610e9f565b979a9699509497509295939492505050565b5f805f805f8061012087890312156111e7575f80fd5b86356111f281610e55565b95506112018860208901610e79565b945060c0870135935060e0870135925061010087013567ffffffffffffffff8111156111b3575f80fd5b5f6020828403121561123b575f80fd5b8135610fdf81610e55565b8151151581526101c081016020830151611264602084018215159052565b506040830151611278604084018215159052565b50606083015161128c606084018215159052565b5060808301516112a0608084018215159052565b5060a08301516112b460a084018215159052565b5060c08301516112c860c084018215159052565b5060e08301516112dc60e084018215159052565b506101008301516112f261010084018215159052565b5061012083015161130861012084018215159052565b5061014083015161131e61014084018215159052565b5061016083015161133461016084018215159052565b5061018083015161134a61018084018215159052565b506101a08301516113606101a084018215159052565b5092915050565b5f805f60e08486031215611379575f80fd5b833561138481610e55565b92506113938560208601610e79565b915060c08401356113a381610e55565b809150509250925092565b803562ffffff81168114610e74575f80fd5b5f60a08284031280156113d1575f80fd5b5060405160a0810167ffffffffffffffff8111828210171561140157634e487b7160e01b5f52604160045260245ffd5b60405261140d83610e69565b815261141b60208401610e69565b602082015261142c604084016113ae565b604082015261143d60608401611071565b606082015261144e60808401610e69565b60808201529392505050565b634e487b7160e01b5f52601260045260245ffd5b634e487b7160e01b5f52601160045260245ffd5b5f8160020b8360020b806114985761149861145a565b627fffff1982145f19821416156114b1576114b161146e565b90059392505050565b5f8260020b806114cc576114cc61145a565b808360020b0791505092915050565b5f8160020b627fffff1981036114f3576114f361146e565b5f190192915050565b5f8160020b627fffff81036115135761151361146e565b60010192915050565b5f8260020b8260020b028060020b91508082146113605761136061146e565b5f6020828403121561154b575f80fd5b5051919050565b8082018082111561082f5761082f61146e565b5f60208284031215611575575f80fd5b610fdf826113ae565b5f6020828403121561158e575f80fd5b610fdf8261107156fea2646970667358221220d633ab21c3979b53a4e2f44505a69a00791abdcf85a44519d64cbc8f07385f7c64736f6c634300081a0033000000000000000000000000e03a1074c86cfedd5c142c4f04f1a1536e20354300000000000000000000000086464c77dd1f62da93b7bc38090a2d2504da5547",
        "nonce": "0xe6",
        "chainId": "0xaa36a7"
      },
      "additionalContracts": [],
      "isFixedGasLimit": false
    },
    {
      "hash": "0x71d2801793f6b135161f481b4e4106a88619b9efdc69265a44e01f04446aeda5",
      "transactionType": "CREATE",
      "contractName": "MockERC20",
      "contractAddress": "0x590b1afea1782b4bcf6c84f94f6c2ae090769461",
      "function": null,
      "arguments": [
        "TokenA",
        "TKNA",
        "18"
      ],
      "transaction": {
        "from": "0x86464c77dd1f62da93b7bc38090a2d2504da5547",
        "gas": "0xf14d1",
        "value": "0x0",
        "input": "0x60e060405234801561000f575f80fd5b50604051610f9d380380610f9d83398101604081905261002e916101a1565b8282825f61003c84826102a2565b50600161004983826102a2565b5060ff81166080524660a05261005d61006c565b60c052506103cd945050505050565b5f7f8b73c3c69bb8fe3d512ecc4cf759cc79239f7b179b0ffacaa9a75d522b39400f5f60405161009c919061035c565b6040805191829003822060208301939093528101919091527fc89efdaa54c0f20c7adf612882df0950f5a951637e0307cdcb4c672f298b8bc660608201524660808201523060a082015260c00160405160208183030381529060405280519060200120905090565b634e487b7160e01b5f52604160045260245ffd5b5f82601f830112610127575f80fd5b81516001600160401b0381111561014057610140610104565b604051601f8201601f19908116603f011681016001600160401b038111828210171561016e5761016e610104565b604052818152838201602001851015610185575f80fd5b8160208501602083015e5f918101602001919091529392505050565b5f805f606084860312156101b3575f80fd5b83516001600160401b038111156101c8575f80fd5b6101d486828701610118565b602086015190945090506001600160401b038111156101f1575f80fd5b6101fd86828701610118565b925050604084015160ff81168114610213575f80fd5b809150509250925092565b600181811c9082168061023257607f821691505b60208210810361025057634e487b7160e01b5f52602260045260245ffd5b50919050565b601f82111561029d57805f5260205f20601f840160051c8101602085101561027b5750805b601f840160051c820191505b8181101561029a575f8155600101610287565b50505b505050565b81516001600160401b038111156102bb576102bb610104565b6102cf816102c9845461021e565b84610256565b6020601f821160018114610301575f83156102ea5750848201515b5f19600385901b1c1916600184901b17845561029a565b5f84815260208120601f198516915b828110156103305787850151825560209485019460019092019101610310565b508482101561034d57868401515f19600387901b60f8161c191681555b50505050600190811b01905550565b5f8083546103698161021e565b6001821680156103805760018114610395576103c2565b60ff19831686528115158202860193506103c2565b865f5260205f205f5b838110156103ba5781548882015260019091019060200161039e565b505081860193505b509195945050505050565b60805160a05160c051610ba66103f75f395f61046f01525f61043a01525f6101590152610ba65ff3fe608060405234801561000f575f80fd5b50600436106100e5575f3560e01c806370a08231116100885780639dc29fac116100635780639dc29fac146101f0578063a9059cbb14610203578063d505accf14610216578063dd62ed3e14610229575f80fd5b806370a08231146101aa5780637ecebe00146101c957806395d89b41146101e8575f80fd5b806323b872dd116100c357806323b872dd14610141578063313ce567146101545780633644e5151461018d57806340c10f1914610195575f80fd5b806306fdde03146100e9578063095ea7b31461010757806318160ddd1461012a575b5f80fd5b6100f1610253565b6040516100fe91906108f2565b60405180910390f35b61011a610115366004610942565b6102de565b60405190151581526020016100fe565b61013360025481565b6040519081526020016100fe565b61011a61014f36600461096a565b61034a565b61017b7f000000000000000000000000000000000000000000000000000000000000000081565b60405160ff90911681526020016100fe565b610133610437565b6101a86101a3366004610942565b610491565b005b6101336101b83660046109a4565b60036020525f908152604090205481565b6101336101d73660046109a4565b60056020525f908152604090205481565b6100f161049f565b6101a86101fe366004610942565b6104ac565b61011a610211366004610942565b6104b6565b6101a86102243660046109c4565b61052c565b610133610237366004610a31565b600460209081525f928352604080842090915290825290205481565b5f805461025f90610a62565b80601f016020809104026020016040519081016040528092919081815260200182805461028b90610a62565b80156102d65780601f106102ad576101008083540402835291602001916102d6565b820191905f5260205f20905b8154815290600101906020018083116102b957829003601f168201915b505050505081565b335f8181526004602090815260408083206001600160a01b038716808552925280832085905551919290917f8c5be1e5ebec7d5bd14f71427d1e84f3dd0314c0f7b2291e5b200ac8c7c3b925906103389086815260200190565b60405180910390a35060015b92915050565b6001600160a01b0383165f9081526004602090815260408083203384529091528120545f1981146103a35761037f8382610aae565b6001600160a01b0386165f9081526004602090815260408083203384529091529020555b6001600160a01b0385165f90815260036020526040812080548592906103ca908490610aae565b90915550506001600160a01b038085165f81815260036020526040908190208054870190555190918716907fddf252ad1be2c89b69c2b068fc378daa952ba7f163c4a11628f55a4df523b3ef906104249087815260200190565b60405180910390a3506001949350505050565b5f7f0000000000000000000000000000000000000000000000000000000000000000461461046c5761046761077e565b905090565b507f000000000000000000000000000000000000000000000000000000000000000090565b61049b8282610816565b5050565b6001805461025f90610a62565b61049b8282610880565b335f908152600360205260408120805483919083906104d6908490610aae565b90915550506001600160a01b0383165f81815260036020526040908190208054850190555133907fddf252ad1be2c89b69c2b068fc378daa952ba7f163c4a11628f55a4df523b3ef906103389086815260200190565b428410156105815760405162461bcd60e51b815260206004820152601760248201527f5045524d49545f444541444c494e455f4558504952454400000000000000000060448201526064015b60405180910390fd5b5f600161058c610437565b6001600160a01b038a81165f8181526005602090815260409182902080546001810190915582517f6e71edae12b1b97f4d1f60370fef10105fa2faae0126114a169c64845d6126c98184015280840194909452938d166060840152608083018c905260a083019390935260c08083018b90528151808403909101815260e08301909152805192019190912061190160f01b6101008301526101028201929092526101228101919091526101420160408051601f1981840301815282825280516020918201205f84529083018083525260ff871690820152606081018590526080810184905260a0016020604051602081039080840390855afa158015610694573d5f803e3d5ffd5b5050604051601f1901519150506001600160a01b038116158015906106ca5750876001600160a01b0316816001600160a01b0316145b6107165760405162461bcd60e51b815260206004820152600e60248201527f494e56414c49445f5349474e45520000000000000000000000000000000000006044820152606401610578565b6001600160a01b039081165f9081526004602090815260408083208a8516808552908352928190208990555188815291928a16917f8c5be1e5ebec7d5bd14f71427d1e84f3dd0314c0f7b2291e5b200ac8c7c3b925910160405180910390a350505050505050565b5f7f8b73c3c69bb8fe3d512ecc4cf759cc79239f7b179b0ffacaa9a75d522b39400f5f6040516107ae9190610ac1565b6040805191829003822060208301939093528101919091527fc89efdaa54c0f20c7adf612882df0950f5a951637e0307cdcb4c672f298b8bc660608201524660808201523060a082015260c00160405160208183030381529060405280519060200120905090565b8060025f8282546108279190610b5d565b90915550506001600160a01b0382165f818152600360209081526040808320805486019055518481527fddf252ad1be2c89b69c2b068fc378daa952ba7f163c4a11628f55a4df523b3ef91015b60405180910390a35050565b6001600160a01b0382165f90815260036020526040812080548392906108a7908490610aae565b90915550506002805482900390556040518181525f906001600160a01b038416907fddf252ad1be2c89b69c2b068fc378daa952ba7f163c4a11628f55a4df523b3ef90602001610874565b602081525f82518060208401528060208501604085015e5f604082850101526040601f19601f83011684010191505092915050565b80356001600160a01b038116811461093d575f80fd5b919050565b5f8060408385031215610953575f80fd5b61095c83610927565b946020939093013593505050565b5f805f6060848603121561097c575f80fd5b61098584610927565b925061099360208501610927565b929592945050506040919091013590565b5f602082840312156109b4575f80fd5b6109bd82610927565b9392505050565b5f805f805f805f60e0888a0312156109da575f80fd5b6109e388610927565b96506109f160208901610927565b95506040880135945060608801359350608088013560ff81168114610a14575f80fd5b9699959850939692959460a0840135945060c09093013592915050565b5f8060408385031215610a42575f80fd5b610a4b83610927565b9150610a5960208401610927565b90509250929050565b600181811c90821680610a7657607f821691505b602082108103610a9457634e487b7160e01b5f52602260045260245ffd5b50919050565b634e487b7160e01b5f52601160045260245ffd5b8181038181111561034457610344610a9a565b5f8083545f8160011c90506001821680610adc57607f821691505b602082108103610afa57634e487b7160e01b5f52602260045260245ffd5b808015610b0e5760018114610b2357610b51565b60ff1984168752821515830287019450610b51565b5f888152602090205f5b84811015610b4957815489820152600190910190602001610b2d565b505082870194505b50929695505050505050565b8082018082111561034457610344610a9a56fea26469706673582212205e8247f025191a951d18dd02e1bdcafd4eef361c6ede746d237dcfb35110cd2664736f6c634300081a0033000000000000000000000000000000000000000000000000000000000000006000000000000000000000000000000000000000000000000000000000000000a000000000000000000000000000000000000000000000000000000000000000120000000000000000000000000000000000000000000000000000000000000006546f6b656e4100000000000000000000000000000000000000000000000000000000000000000000000000000000000000000000000000000000000000000004544b4e4100000000000000000000000000000000000000000000000000000000",
        "nonce": "0xe7",
        "chainId": "0xaa36a7"
      },
      "additionalContracts": [],
      "isFixedGasLimit": false
    },
    {
      "hash": "0x86135ea51f6bdcaa9042ebc1d337c000947ccd24229af336d09208c480cea446",
      "transactionType": "CALL",
      "contractName": "MockERC20",
      "contractAddress": "0x590b1afea1782b4bcf6c84f94f6c2ae090769461",
      "function": "mint(address,uint256)",
      "arguments": [
        "0x86464c77dd1f62dA93b7bC38090A2D2504DA5547",
        "1000000000000000000000000"
      ],
      "transaction": {
        "from": "0x86464c77dd1f62da93b7bc38090a2d2504da5547",
        "to": "0x590b1afea1782b4bcf6c84f94f6c2ae090769461",
        "gas": "0x17086",
        "value": "0x0",
        "input": "0x40c10f1900000000000000000000000086464c77dd1f62da93b7bc38090a2d2504da554700000000000000000000000000000000000000000000d3c21bcecceda1000000",
        "nonce": "0xe8",
        "chainId": "0xaa36a7"
      },
      "additionalContracts": [],
      "isFixedGasLimit": false
    },
    {
      "hash": "0x9eedce0de111d4ebf3df80ac2434ae95c80525704271ebf2fefb51052990a27f",
      "transactionType": "CALL",
      "contractName": "MockERC20",
      "contractAddress": "0x590b1afea1782b4bcf6c84f94f6c2ae090769461",
      "function": "approve(address,uint256)",
      "arguments": [
        "0x000000000022D473030F116dDEE9F6B43aC78BA3",
        "115792089237316195423570985008687907853269984665640564039457584007913129639935"
      ],
      "transaction": {
        "from": "0x86464c77dd1f62da93b7bc38090a2d2504da5547",
        "to": "0x590b1afea1782b4bcf6c84f94f6c2ae090769461",
        "gas": "0x1093b",
        "value": "0x0",
        "input": "0x095ea7b3000000000000000000000000000000000022d473030f116ddee9f6b43ac78ba3ffffffffffffffffffffffffffffffffffffffffffffffffffffffffffffffff",
        "nonce": "0xe9",
        "chainId": "0xaa36a7"
      },
      "additionalContracts": [],
      "isFixedGasLimit": false
    },
    {
      "hash": "0x1ffa7cb99563fd6ead1916df253860f53abbd52154f51f6ba9e491b2eb5567c2",
      "transactionType": "CALL",
      "contractName": null,
      "contractAddress": "0x000000000022d473030f116ddee9f6b43ac78ba3",
      "function": "approve(address,address,uint160,uint48)",
      "arguments": [
        "0x590b1AfEa1782B4Bcf6C84f94F6c2aE090769461",
        "0x429ba70129df741B2Ca2a85BC3A2a3328e5c09b4",
        "1461501637330902918203684832716283019655932542975",
        "281474976710655"
      ],
      "transaction": {
        "from": "0x86464c77dd1f62da93b7bc38090a2d2504da5547",
        "to": "0x000000000022d473030f116ddee9f6b43ac78ba3",
        "gas": "0x1112d",
        "value": "0x0",
        "input": "0x87517c45000000000000000000000000590b1afea1782b4bcf6c84f94f6c2ae090769461000000000000000000000000429ba70129df741b2ca2a85bc3a2a3328e5c09b4000000000000000000000000ffffffffffffffffffffffffffffffffffffffff0000000000000000000000000000000000000000000000000000ffffffffffff",
        "nonce": "0xea",
        "chainId": "0xaa36a7"
      },
      "additionalContracts": [],
      "isFixedGasLimit": false
    },
    {
      "hash": "0x604e4c5f048dceaaa1854069a51fa240e9de8ae8856c2aec7919c82e0df32bf1",
      "transactionType": "CALL",
      "contractName": null,
      "contractAddress": "0xf8fb3713d459d7c1018bd0a49d19b4c44290ebe5",
      "function": "approve(address,uint256)",
      "arguments": [
        "0x000000000022D473030F116dDEE9F6B43aC78BA3",
        "115792089237316195423570985008687907853269984665640564039457584007913129639935"
      ],
      "transaction": {
        "from": "0x86464c77dd1f62da93b7bc38090a2d2504da5547",
        "to": "0xf8fb3713d459d7c1018bd0a49d19b4c44290ebe5",
        "gas": "0xa7f9",
        "value": "0x0",
        "input": "0x095ea7b3000000000000000000000000000000000022d473030f116ddee9f6b43ac78ba3ffffffffffffffffffffffffffffffffffffffffffffffffffffffffffffffff",
        "nonce": "0xeb",
        "chainId": "0xaa36a7"
      },
      "additionalContracts": [],
      "isFixedGasLimit": false
    },
    {
      "hash": "0x89d64a06c0805eddcbd470f9dc2573ec6a08afe4fa0ddbeff8356a89b5105ad7",
      "transactionType": "CALL",
      "contractName": null,
      "contractAddress": "0x000000000022d473030f116ddee9f6b43ac78ba3",
      "function": "approve(address,address,uint160,uint48)",
      "arguments": [
        "0xf8Fb3713D459D7C1018BD0A49D19b4C44290EBE5",
        "0x429ba70129df741B2Ca2a85BC3A2a3328e5c09b4",
        "1461501637330902918203684832716283019655932542975",
        "281474976710655"
      ],
      "transaction": {
        "from": "0x86464c77dd1f62da93b7bc38090a2d2504da5547",
        "to": "0x000000000022d473030f116ddee9f6b43ac78ba3",
        "gas": "0x96a0",
        "value": "0x0",
        "input": "0x87517c45000000000000000000000000f8fb3713d459d7c1018bd0a49d19b4c44290ebe5000000000000000000000000429ba70129df741b2ca2a85bc3a2a3328e5c09b4000000000000000000000000ffffffffffffffffffffffffffffffffffffffff0000000000000000000000000000000000000000000000000000ffffffffffff",
        "nonce": "0xec",
        "chainId": "0xaa36a7"
      },
      "additionalContracts": [],
      "isFixedGasLimit": false
    },
    {
      "hash": "0x4c6ad0ec1d753d1f22b112e1bcacc682acaefeec2bb8d699a3e2db2ba737e8f0",
      "transactionType": "CALL",
      "contractName": null,
      "contractAddress": "0xe03a1074c86cfedd5c142c4f04f1a1536e203543",
      "function": "initialize((address,address,uint24,int24,address),uint160)",
      "arguments": [
        "(0x590b1AfEa1782B4Bcf6C84f94F6c2aE090769461, 0xf8Fb3713D459D7C1018BD0A49D19b4C44290EBE5, 3000, 30, 0x6E126F1E9Db9e7d0ECce19efF10806A96e9b1440)",
        "79228162514264337593543950336"
      ],
      "transaction": {
        "from": "0x86464c77dd1f62da93b7bc38090a2d2504da5547",
        "to": "0xe03a1074c86cfedd5c142c4f04f1a1536e203543",
        "gas": "0x13df2",
        "value": "0x0",
        "input": "0x6276cbbe000000000000000000000000590b1afea1782b4bcf6c84f94f6c2ae090769461000000000000000000000000f8fb3713d459d7c1018bd0a49d19b4c44290ebe50000000000000000000000000000000000000000000000000000000000000bb8000000000000000000000000000000000000000000000000000000000000001e0000000000000000000000006e126f1e9db9e7d0ecce19eff10806a96e9b14400000000000000000000000000000000000000001000000000000000000000000",
        "nonce": "0xed",
        "chainId": "0xaa36a7"
      },
      "additionalContracts": [],
      "isFixedGasLimit": false
    },
    {
      "hash": "0xc1e0d809624f64e06ed0fa26f0599b7f7215efb8869f9084839d04d07e6fa198",
      "transactionType": "CALL",
      "contractName": null,
      "contractAddress": "0x429ba70129df741b2ca2a85bc3a2a3328e5c09b4",
      "function": "modifyLiquidities(bytes,uint256)",
      "arguments": [
        "0x0000000000000000000000000000000000000000000000000000000000000040000000000000000000000000000000000000000000000000000000000000008000000000000000000000000000000000000000000000000000000000000000030212120000000000000000000000000000000000000000000000000000000000000000000000000000000000000000000000000000000000000000000000000300000000000000000000000000000000000000000000000000000000000000600000000000000000000000000000000000000000000000000000000000000220000000000000000000000000000000000000000000000000000000000000026000000000000000000000000000000000000000000000000000000000000001a0000000000000000000000000590b1afea1782b4bcf6c84f94f6c2ae090769461000000000000000000000000f8fb3713d459d7c1018bd0a49d19b4c44290ebe50000000000000000000000000000000000000000000000000000000000000bb8000000000000000000000000000000000000000000000000000000000000001e0000000000000000000000006e126f1e9db9e7d0ecce19eff10806a96e9b1440ffffffffffffffffffffffffffffffffffffffffffffffffffffffffffffffc4000000000000000000000000000000000000000000000000000000000000003c00000000000000000000000000000000000000000000152d02c7e14af680000000000000000000000000000000000000ffffffffffffffffffffffffffffffff00000000000000000000000000000000ffffffffffffffffffffffffffffffff00000000000000000000000086464c77dd1f62da93b7bc38090a2d2504da5547000000000000000000000000000000000000000000000000000000000000018000000000000000000000000000000000000000000000000000000000000000000000000000000000000000000000000000000000000000000000000000000020000000000000000000000000590b1afea1782b4bcf6c84f94f6c2ae0907694610000000000000000000000000000000000000000000000000000000000000020000000000000000000000000f8fb3713d459d7c1018bd0a49d19b4c44290ebe5",
        "1758127620"
      ],
      "transaction": {
        "from": "0x86464c77dd1f62da93b7bc38090a2d2504da5547",
        "to": "0x429ba70129df741b2ca2a85bc3a2a3328e5c09b4",
        "gas": "0x8cede",
        "value": "0x0",
        "input": "0xdd46508f00000000000000000000000000000000000000000000000000000000000000400000000000000000000000000000000000000000000000000000000068cae60400000000000000000000000000000000000000000000000000000000000003400000000000000000000000000000000000000000000000000000000000000040000000000000000000000000000000000000000000000000000000000000008000000000000000000000000000000000000000000000000000000000000000030212120000000000000000000000000000000000000000000000000000000000000000000000000000000000000000000000000000000000000000000000000300000000000000000000000000000000000000000000000000000000000000600000000000000000000000000000000000000000000000000000000000000220000000000000000000000000000000000000000000000000000000000000026000000000000000000000000000000000000000000000000000000000000001a0000000000000000000000000590b1afea1782b4bcf6c84f94f6c2ae090769461000000000000000000000000f8fb3713d459d7c1018bd0a49d19b4c44290ebe50000000000000000000000000000000000000000000000000000000000000bb8000000000000000000000000000000000000000000000000000000000000001e0000000000000000000000006e126f1e9db9e7d0ecce19eff10806a96e9b1440ffffffffffffffffffffffffffffffffffffffffffffffffffffffffffffffc4000000000000000000000000000000000000000000000000000000000000003c00000000000000000000000000000000000000000000152d02c7e14af680000000000000000000000000000000000000ffffffffffffffffffffffffffffffff00000000000000000000000000000000ffffffffffffffffffffffffffffffff00000000000000000000000086464c77dd1f62da93b7bc38090a2d2504da5547000000000000000000000000000000000000000000000000000000000000018000000000000000000000000000000000000000000000000000000000000000000000000000000000000000000000000000000000000000000000000000000020000000000000000000000000590b1afea1782b4bcf6c84f94f6c2ae0907694610000000000000000000000000000000000000000000000000000000000000020000000000000000000000000f8fb3713d459d7c1018bd0a49d19b4c44290ebe5",
        "nonce": "0xee",
        "chainId": "0xaa36a7"
      },
      "additionalContracts": [],
      "isFixedGasLimit": false
    }
  ],
  "receipts": [
    {
      "status": "0x1",
      "cumulativeGasUsed": "0x3100791",
      "logs": [
        {
          "address": "0x6e126f1e9db9e7d0ecce19eff10806a96e9b1440",
          "topics": [
            "0x8be0079c531659141344cd1fd0a4f28419497f9722a3daafe3b4186f6b6457e0",
            "0x0000000000000000000000000000000000000000000000000000000000000000",
            "0x00000000000000000000000086464c77dd1f62da93b7bc38090a2d2504da5547"
          ],
          "data": "0x",
          "blockHash": "0x25887acf7606dda6f9fa4923b5391a721a8d18c6d37cad8545ee61c8eacd1506",
          "blockNumber": "0x8cbbbf",
          "transactionHash": "0x4070c07dedbc49ce2a7dea257df694ea1212ff1096db9af8b6464fdce2203d01",
          "transactionIndex": "0x4ef",
          "logIndex": "0xf5",
          "removed": false
        }
      ],
      "logsBloom": "0x00000000000000000000000000000000000000004000000000800000000000000000040000000000000000000000000000000000000000000000000000000000000400000000000000000000000000000001000000000000000000000000000000000000020000000000000000000800000000000000000000000000000000400000000000000000000000000000000000000000000000000000000000000000000000010000000000000000000000000000000000000000000000000000000000000000000000000000000000800000000000000000000000000000000020000000000000000000000000000000000000000080000000000000000000000000",
      "type": "0x2",
      "transactionHash": "0x4070c07dedbc49ce2a7dea257df694ea1212ff1096db9af8b6464fdce2203d01",
      "transactionIndex": "0x4ef",
      "blockHash": "0x25887acf7606dda6f9fa4923b5391a721a8d18c6d37cad8545ee61c8eacd1506",
      "blockNumber": "0x8cbbbf",
      "gasUsed": "0x148688",
      "effectiveGasPrice": "0x60c3f7",
      "from": "0x86464c77dd1f62da93b7bc38090a2d2504da5547",
      "to": "0x4e59b44847b379578588920ca78fbf26c0b4956c",
      "contractAddress": null
    },
    {
      "status": "0x1",
      "cumulativeGasUsed": "0x31ba16d",
      "logs": [],
      "logsBloom": "0x00000000000000000000000000000000000000000000000000000000000000000000000000000000000000000000000000000000000000000000000000000000000000000000000000000000000000000000000000000000000000000000000000000000000000000000000000000000000000000000000000000000000000000000000000000000000000000000000000000000000000000000000000000000000000000000000000000000000000000000000000000000000000000000000000000000000000000000000000000000000000000000000000000000000000000000000000000000000000000000000000000000000000000000000000000000",
      "type": "0x2",
      "transactionHash": "0x71d2801793f6b135161f481b4e4106a88619b9efdc69265a44e01f04446aeda5",
      "transactionIndex": "0x4f0",
      "blockHash": "0x25887acf7606dda6f9fa4923b5391a721a8d18c6d37cad8545ee61c8eacd1506",
      "blockNumber": "0x8cbbbf",
      "gasUsed": "0xb99dc",
      "effectiveGasPrice": "0x60c3f7",
      "from": "0x86464c77dd1f62da93b7bc38090a2d2504da5547",
      "to": null,
      "contractAddress": "0x590b1afea1782b4bcf6c84f94f6c2ae090769461"
    },
    {
      "status": "0x1",
      "cumulativeGasUsed": "0x31cac3c",
      "logs": [
        {
          "address": "0x590b1afea1782b4bcf6c84f94f6c2ae090769461",
          "topics": [
            "0xddf252ad1be2c89b69c2b068fc378daa952ba7f163c4a11628f55a4df523b3ef",
            "0x0000000000000000000000000000000000000000000000000000000000000000",
            "0x00000000000000000000000086464c77dd1f62da93b7bc38090a2d2504da5547"
          ],
          "data": "0x00000000000000000000000000000000000000000000d3c21bcecceda1000000",
          "blockHash": "0x25887acf7606dda6f9fa4923b5391a721a8d18c6d37cad8545ee61c8eacd1506",
          "blockNumber": "0x8cbbbf",
          "transactionHash": "0x86135ea51f6bdcaa9042ebc1d337c000947ccd24229af336d09208c480cea446",
          "transactionIndex": "0x4f1",
          "logIndex": "0xf6",
          "removed": false
        }
      ],
      "logsBloom": "0x00000000000000000000000000000000000000004000000000000000000000000000040000000000000000000000000000000000000004000000000000000000000000000000000000000008000000000000000000000000000000000000000000000000020000000000000000000800000000000000000000000010000000000000000000000000000000000080000000000000000000000000000000000000000000000000000000000000000000000000000000001000000000000000000000000002000000000000000000800000000000000000000000000000000020000000000000000000000000000000000000000000000000000000000000000000",
      "type": "0x2",
      "transactionHash": "0x86135ea51f6bdcaa9042ebc1d337c000947ccd24229af336d09208c480cea446",
      "transactionIndex": "0x4f1",
      "blockHash": "0x25887acf7606dda6f9fa4923b5391a721a8d18c6d37cad8545ee61c8eacd1506",
      "blockNumber": "0x8cbbbf",
      "gasUsed": "0x10acf",
      "effectiveGasPrice": "0x60c3f7",
      "from": "0x86464c77dd1f62da93b7bc38090a2d2504da5547",
      "to": "0x590b1afea1782b4bcf6c84f94f6c2ae090769461",
      "contractAddress": null
    },
    {
      "status": "0x1",
      "cumulativeGasUsed": "0x31d6197",
      "logs": [
        {
          "address": "0x590b1afea1782b4bcf6c84f94f6c2ae090769461",
          "topics": [
            "0x8c5be1e5ebec7d5bd14f71427d1e84f3dd0314c0f7b2291e5b200ac8c7c3b925",
            "0x00000000000000000000000086464c77dd1f62da93b7bc38090a2d2504da5547",
            "0x000000000000000000000000000000000022d473030f116ddee9f6b43ac78ba3"
          ],
          "data": "0xffffffffffffffffffffffffffffffffffffffffffffffffffffffffffffffff",
          "blockHash": "0x25887acf7606dda6f9fa4923b5391a721a8d18c6d37cad8545ee61c8eacd1506",
          "blockNumber": "0x8cbbbf",
          "transactionHash": "0x9eedce0de111d4ebf3df80ac2434ae95c80525704271ebf2fefb51052990a27f",
          "transactionIndex": "0x4f2",
          "logIndex": "0xf7",
          "removed": false
        }
      ],
      "logsBloom": "0x00000000000000000000000000000000000000004000000000000000000000000000040000000000000000000000000000000000800004000000000000200000000000000000000000004000000000000000000000000800000000000000000000000000000000000000000000000000000000000000000000000000000000000000000000000000000000000080000000000000000000000000000000000000020000000000000000000000000000000000000000001000000000000000000000000000000000000000000000800000000000000000000000000000000000000010000000000000000000000000000000000000000000000000000000000000",
      "type": "0x2",
      "transactionHash": "0x9eedce0de111d4ebf3df80ac2434ae95c80525704271ebf2fefb51052990a27f",
      "transactionIndex": "0x4f2",
      "blockHash": "0x25887acf7606dda6f9fa4923b5391a721a8d18c6d37cad8545ee61c8eacd1506",
      "blockNumber": "0x8cbbbf",
      "gasUsed": "0xb55b",
      "effectiveGasPrice": "0x60c3f7",
      "from": "0x86464c77dd1f62da93b7bc38090a2d2504da5547",
      "to": "0x590b1afea1782b4bcf6c84f94f6c2ae090769461",
      "contractAddress": null
    },
    {
      "status": "0x1",
      "cumulativeGasUsed": "0x31e1c61",
      "logs": [
        {
          "address": "0x000000000022d473030f116ddee9f6b43ac78ba3",
          "topics": [
            "0xda9fa7c1b00402c17d0161b249b1ab8bbec047c5a52207b9c112deffd817036b",
            "0x00000000000000000000000086464c77dd1f62da93b7bc38090a2d2504da5547",
            "0x000000000000000000000000590b1afea1782b4bcf6c84f94f6c2ae090769461",
            "0x000000000000000000000000429ba70129df741b2ca2a85bc3a2a3328e5c09b4"
          ],
          "data": "0x000000000000000000000000ffffffffffffffffffffffffffffffffffffffff0000000000000000000000000000000000000000000000000000ffffffffffff",
          "blockHash": "0x25887acf7606dda6f9fa4923b5391a721a8d18c6d37cad8545ee61c8eacd1506",
          "blockNumber": "0x8cbbbf",
          "transactionHash": "0x1ffa7cb99563fd6ead1916df253860f53abbd52154f51f6ba9e491b2eb5567c2",
          "transactionIndex": "0x4f3",
          "logIndex": "0xf8",
          "removed": false
        }
      ],
      "logsBloom": "0x00010000000000000000000000000000000000004000000000000000000000000000040000000040080000000000000000000000000000000000000000080000200000000000000000000100000000000000000000001000000000000000000000000000000000000000000000000000000000000000000000000800000000000020000000000000000000000000000000000000000000000000000000000000000000000000000000000000000000000000000000000000000000080000000000000000000000000000000000800000000000000000000040000000000000000000000000000000000000000000000000000000000000000000000000000400",
      "type": "0x2",
      "transactionHash": "0x1ffa7cb99563fd6ead1916df253860f53abbd52154f51f6ba9e491b2eb5567c2",
      "transactionIndex": "0x4f3",
      "blockHash": "0x25887acf7606dda6f9fa4923b5391a721a8d18c6d37cad8545ee61c8eacd1506",
      "blockNumber": "0x8cbbbf",
      "gasUsed": "0xbaca",
      "effectiveGasPrice": "0x60c3f7",
      "from": "0x86464c77dd1f62da93b7bc38090a2d2504da5547",
      "to": "0x000000000022d473030f116ddee9f6b43ac78ba3",
      "contractAddress": null
    },
    {
      "status": "0x1",
      "cumulativeGasUsed": "0x31e8f3c",
      "logs": [
        {
          "address": "0xf8fb3713d459d7c1018bd0a49d19b4c44290ebe5",
          "topics": [
            "0x8c5be1e5ebec7d5bd14f71427d1e84f3dd0314c0f7b2291e5b200ac8c7c3b925",
            "0x00000000000000000000000086464c77dd1f62da93b7bc38090a2d2504da5547",
            "0x000000000000000000000000000000000022d473030f116ddee9f6b43ac78ba3"
          ],
          "data": "0xffffffffffffffffffffffffffffffffffffffffffffffffffffffffffffffff",
          "blockHash": "0x25887acf7606dda6f9fa4923b5391a721a8d18c6d37cad8545ee61c8eacd1506",
          "blockNumber": "0x8cbbbf",
          "transactionHash": "0x604e4c5f048dceaaa1854069a51fa240e9de8ae8856c2aec7919c82e0df32bf1",
          "transactionIndex": "0x4f4",
          "logIndex": "0xf9",
          "removed": false
        }
      ],
      "logsBloom": "0x00000000000000000000000000000000000000004000000000000000000000800000040000000000000000000000000000000000800000020000000000200000000000000000000000004000000000000000000000000800000000000000000000000000000000000000000000000400000000000000000000000000000000000000000000000000000000000000000000000000000000000000000000000000020000000000000000000000000000000000000000000000000000000000000000000000000000000000000000800000000000000000000000000000000000000010000000000000000000000000000000000000000000000000000000000000",
      "type": "0x2",
      "transactionHash": "0x604e4c5f048dceaaa1854069a51fa240e9de8ae8856c2aec7919c82e0df32bf1",
      "transactionIndex": "0x4f4",
      "blockHash": "0x25887acf7606dda6f9fa4923b5391a721a8d18c6d37cad8545ee61c8eacd1506",
      "blockNumber": "0x8cbbbf",
      "gasUsed": "0x72db",
      "effectiveGasPrice": "0x60c3f7",
      "from": "0x86464c77dd1f62da93b7bc38090a2d2504da5547",
      "to": "0xf8fb3713d459d7c1018bd0a49d19b4c44290ebe5",
      "contractAddress": null
    },
    {
      "status": "0x1",
      "cumulativeGasUsed": "0x31efc4a",
      "logs": [
        {
          "address": "0x000000000022d473030f116ddee9f6b43ac78ba3",
          "topics": [
            "0xda9fa7c1b00402c17d0161b249b1ab8bbec047c5a52207b9c112deffd817036b",
            "0x00000000000000000000000086464c77dd1f62da93b7bc38090a2d2504da5547",
            "0x000000000000000000000000f8fb3713d459d7c1018bd0a49d19b4c44290ebe5",
            "0x000000000000000000000000429ba70129df741b2ca2a85bc3a2a3328e5c09b4"
          ],
          "data": "0x000000000000000000000000ffffffffffffffffffffffffffffffffffffffff0000000000000000000000000000000000000000000000000000ffffffffffff",
          "blockHash": "0x25887acf7606dda6f9fa4923b5391a721a8d18c6d37cad8545ee61c8eacd1506",
          "blockNumber": "0x8cbbbf",
          "transactionHash": "0x89d64a06c0805eddcbd470f9dc2573ec6a08afe4fa0ddbeff8356a89b5105ad7",
          "transactionIndex": "0x4f5",
          "logIndex": "0xfa",
          "removed": false
        }
      ],
      "logsBloom": "0x00030000000000000000000000000000000000004000000000000000000000000000040000000040080000000000000000000000000000000000000000080000000000000000000000000000000000000000000000000000000000000000000000000000000000000000000000000000000000000000000000000800000000000020000000000000000000000000000000000000000000000000000000000000000000000000020000000000000000000000000000000000000000080000000000000000000000000000000000800000004000000000000040000000000000000000000000000000000000000000000000000000000000000000000000000400",
      "type": "0x2",
      "transactionHash": "0x89d64a06c0805eddcbd470f9dc2573ec6a08afe4fa0ddbeff8356a89b5105ad7",
      "transactionIndex": "0x4f5",
      "blockHash": "0x25887acf7606dda6f9fa4923b5391a721a8d18c6d37cad8545ee61c8eacd1506",
      "blockNumber": "0x8cbbbf",
      "gasUsed": "0x6d0e",
      "effectiveGasPrice": "0x60c3f7",
      "from": "0x86464c77dd1f62da93b7bc38090a2d2504da5547",
      "to": "0x000000000022d473030f116ddee9f6b43ac78ba3",
      "contractAddress": null
    },
    {
      "status": "0x1",
      "cumulativeGasUsed": "0x31fe27a",
      "logs": [
        {
          "address": "0xe03a1074c86cfedd5c142c4f04f1a1536e203543",
          "topics": [
            "0xdd466e674ea557f56295e2d0218a125ea4b4f0f6f3307b95f85e6110838d6438",
            "0x2309f7d697f5b7cf39b4401f20927d680c323dce9318cf97aa3a315d32602ef0",
            "0x000000000000000000000000590b1afea1782b4bcf6c84f94f6c2ae090769461",
            "0x000000000000000000000000f8fb3713d459d7c1018bd0a49d19b4c44290ebe5"
          ],
          "data": "0x0000000000000000000000000000000000000000000000000000000000000bb8000000000000000000000000000000000000000000000000000000000000001e0000000000000000000000006e126f1e9db9e7d0ecce19eff10806a96e9b144000000000000000000000000000000000000000010000000000000000000000000000000000000000000000000000000000000000000000000000000000000000",
          "blockHash": "0x25887acf7606dda6f9fa4923b5391a721a8d18c6d37cad8545ee61c8eacd1506",
          "blockNumber": "0x8cbbbf",
          "transactionHash": "0x4c6ad0ec1d753d1f22b112e1bcacc682acaefeec2bb8d699a3e2db2ba737e8f0",
          "transactionIndex": "0x4f6",
          "logIndex": "0xfb",
          "removed": false
        }
      ],
      "logsBloom": "0x00020000000000000000000000000000000000000000000000010000000000000000000000000000000000000000000000000100000000000200000000000000200000000000000000000100000000000000000000001000000000000000000000000000000000000000000000000000000000000000100000000000000000000000000000000008000000000000000000000001000000000000000000200000000000000000020000000000000000000000000000000000000000000000000000000000000000000000000000000000004000800000000000000000000000001000000000000000000000000000000000000000000000000000000000000000",
      "type": "0x2",
      "transactionHash": "0x4c6ad0ec1d753d1f22b112e1bcacc682acaefeec2bb8d699a3e2db2ba737e8f0",
      "transactionIndex": "0x4f6",
      "blockHash": "0x25887acf7606dda6f9fa4923b5391a721a8d18c6d37cad8545ee61c8eacd1506",
      "blockNumber": "0x8cbbbf",
      "gasUsed": "0xe630",
      "effectiveGasPrice": "0x60c3f7",
      "from": "0x86464c77dd1f62da93b7bc38090a2d2504da5547",
      "to": "0xe03a1074c86cfedd5c142c4f04f1a1536e203543",
      "contractAddress": null
    },
    {
      "status": "0x1",
      "cumulativeGasUsed": "0x32642f7",
      "logs": [
        {
          "address": "0x429ba70129df741b2ca2a85bc3a2a3328e5c09b4",
          "topics": [
            "0xddf252ad1be2c89b69c2b068fc378daa952ba7f163c4a11628f55a4df523b3ef",
            "0x0000000000000000000000000000000000000000000000000000000000000000",
            "0x00000000000000000000000086464c77dd1f62da93b7bc38090a2d2504da5547",
            "0x0000000000000000000000000000000000000000000000000000000000004317"
          ],
          "data": "0x",
          "blockHash": "0x25887acf7606dda6f9fa4923b5391a721a8d18c6d37cad8545ee61c8eacd1506",
          "blockNumber": "0x8cbbbf",
          "transactionHash": "0xc1e0d809624f64e06ed0fa26f0599b7f7215efb8869f9084839d04d07e6fa198",
          "transactionIndex": "0x4f7",
          "logIndex": "0xfc",
          "removed": false
        },
        {
          "address": "0xe03a1074c86cfedd5c142c4f04f1a1536e203543",
          "topics": [
            "0xf208f4912782fd25c7f114ca3723a2d5dd6f3bcc3ac8db5af63baa85f711d5ec",
            "0x2309f7d697f5b7cf39b4401f20927d680c323dce9318cf97aa3a315d32602ef0",
            "0x000000000000000000000000429ba70129df741b2ca2a85bc3a2a3328e5c09b4"
          ],
          "data": "0xffffffffffffffffffffffffffffffffffffffffffffffffffffffffffffffc4000000000000000000000000000000000000000000000000000000000000003c00000000000000000000000000000000000000000000152d02c7e14af68000000000000000000000000000000000000000000000000000000000000000004317",
          "blockHash": "0x25887acf7606dda6f9fa4923b5391a721a8d18c6d37cad8545ee61c8eacd1506",
          "blockNumber": "0x8cbbbf",
          "transactionHash": "0xc1e0d809624f64e06ed0fa26f0599b7f7215efb8869f9084839d04d07e6fa198",
          "transactionIndex": "0x4f7",
          "logIndex": "0xfd",
          "removed": false
        },
        {
          "address": "0x590b1afea1782b4bcf6c84f94f6c2ae090769461",
          "topics": [
            "0xddf252ad1be2c89b69c2b068fc378daa952ba7f163c4a11628f55a4df523b3ef",
            "0x00000000000000000000000086464c77dd1f62da93b7bc38090a2d2504da5547",
            "0x000000000000000000000000e03a1074c86cfedd5c142c4f04f1a1536e203543"
          ],
          "data": "0x0000000000000000000000000000000000000000000000103ce3da3ba6cb63c8",
          "blockHash": "0x25887acf7606dda6f9fa4923b5391a721a8d18c6d37cad8545ee61c8eacd1506",
          "blockNumber": "0x8cbbbf",
          "transactionHash": "0xc1e0d809624f64e06ed0fa26f0599b7f7215efb8869f9084839d04d07e6fa198",
          "transactionIndex": "0x4f7",
          "logIndex": "0xfe",
          "removed": false
        },
        {
          "address": "0xf8fb3713d459d7c1018bd0a49d19b4c44290ebe5",
          "topics": [
            "0xddf252ad1be2c89b69c2b068fc378daa952ba7f163c4a11628f55a4df523b3ef",
            "0x00000000000000000000000086464c77dd1f62da93b7bc38090a2d2504da5547",
            "0x000000000000000000000000e03a1074c86cfedd5c142c4f04f1a1536e203543"
          ],
          "data": "0x0000000000000000000000000000000000000000000000103ce3da3ba6cb63c8",
          "blockHash": "0x25887acf7606dda6f9fa4923b5391a721a8d18c6d37cad8545ee61c8eacd1506",
          "blockNumber": "0x8cbbbf",
          "transactionHash": "0xc1e0d809624f64e06ed0fa26f0599b7f7215efb8869f9084839d04d07e6fa198",
          "transactionIndex": "0x4f7",
          "logIndex": "0xff",
          "removed": false
        },
        {
          "address": "0xf8fb3713d459d7c1018bd0a49d19b4c44290ebe5",
          "topics": [
            "0x8c5be1e5ebec7d5bd14f71427d1e84f3dd0314c0f7b2291e5b200ac8c7c3b925",
            "0x00000000000000000000000086464c77dd1f62da93b7bc38090a2d2504da5547",
            "0x000000000000000000000000000000000022d473030f116ddee9f6b43ac78ba3"
          ],
          "data": "0xffffffffffffffffffffffffffffffffffffffffffffffefc31c25c459349c37",
          "blockHash": "0x25887acf7606dda6f9fa4923b5391a721a8d18c6d37cad8545ee61c8eacd1506",
          "blockNumber": "0x8cbbbf",
          "transactionHash": "0xc1e0d809624f64e06ed0fa26f0599b7f7215efb8869f9084839d04d07e6fa198",
          "transactionIndex": "0x4f7",
          "logIndex": "0x100",
          "removed": false
        }
      ],
      "logsBloom": "0x000000000000000000000010000000000000000040000000000100000800008000000400000000400800000000000000000001028000040202000000002000000000000000000000000040080000000000000000000008000000000000000000000000000200000000000000a0000c000000000000001000000008100000000000000000010000000000100000800000000000000000000000000000000000000a0004000000000000000000000000000000000000401000000000000000000000000002000000000000000000800000000000800000000000001000000020001010000000000000000000000000000004000000000000000000000000000000",
      "type": "0x2",
      "transactionHash": "0xc1e0d809624f64e06ed0fa26f0599b7f7215efb8869f9084839d04d07e6fa198",
      "transactionIndex": "0x4f7",
      "blockHash": "0x25887acf7606dda6f9fa4923b5391a721a8d18c6d37cad8545ee61c8eacd1506",
      "blockNumber": "0x8cbbbf",
      "gasUsed": "0x6607d",
      "effectiveGasPrice": "0x60c3f7",
      "from": "0x86464c77dd1f62da93b7bc38090a2d2504da5547",
      "to": "0x429ba70129df741b2ca2a85bc3a2a3328e5c09b4",
      "contractAddress": null
    }
  ],
  "libraries": [],
  "pending": [],
  "returns": {},
  "timestamp": 1758127441,
  "chain": 11155111,
  "commit": "16b58c8"
}