{
  "transactions": [
    {
      "hash": "0x4e79ba9226298d4b68dfba3a22fa4b45eed4400d0cd7ca77d39041579d20c874",
      "transactionType": "CREATE2",
      "contractName": "LPRebalanceHook",
      "contractAddress": "0x5f4e698f3482c6eeca0d234b8b80e1381f605440",
      "function": null,
      "arguments": [
        "0xE03A1074c86CFeDd5C142C4F04F1a1536e203543",
        "0x86464c77dd1f62dA93b7bC38090A2D2504DA5547"
      ],
      "transaction": {
        "from": "0x86464c77dd1f62da93b7bc38090a2d2504da5547",
        "to": "0x4e59b44847b379578588920ca78fbf26c0b4956c",
        "gas": "0x1c59d1",
        "value": "0x0",
        "input": "0x000000000000000000000000000000000000000000000000000000000001148b60a060405260015f55600580546001600160801b031916610258179055348015610027575f80fd5b506040516119c03803806119c08339810160408190526100469161035d565b6001600160a01b038216608052808261005e3061009d565b506001600160a01b03811661008c57604051631e4fbdf760e01b81525f600482015260240160405180910390fd5b61009581610193565b505050610395565b6101908161018b604080516101c0810182525f80825260208201819052918101829052606081018290526080810182905260a0810182905260c0810182905260e08101829052610100810182905261012081018290526101408101829052610160810182905261018081018290526101a081019190915250604080516101c0810182525f808252600160208301819052928201819052606082018390526080820181905260a0820181905260c0820181905260e0820192909252610100810182905261012081018290526101408101829052610160810182905261018081018290526101a081019190915290565b6101e4565b50565b600180546001600160a01b038381166001600160a01b0319831681179093556040519116919082907f8be0079c531659141344cd1fd0a4f28419497f9722a3daafe3b4186f6b6457e0905f90a35050565b80511515612000831615151415806102085750602081015115156110008316151514155b8061021f5750604081015115156108008316151514155b806102365750606081015115156104008316151514155b8061024d5750608081015115156102008316151514155b80610264575060a081015115156101008316151514155b8061027a575060c0810151151560808316151514155b80610290575060e0810151151560408316151514155b806102a75750610100810151151560208316151514155b806102be5750610120810151151560108316151514155b806102d55750610140810151151560088316151514155b806102ec5750610160810151151560048316151514155b806103035750610180810151151560028316151514155b8061031a57506101a0810151151560018316151514155b1561033057610330630732d7b560e51b83610334565b5050565b815f526001600160a01b03811660045260245ffd5b6001600160a01b0381168114610190575f80fd5b5f806040838503121561036e575f80fd5b825161037981610349565b602084015190925061038a81610349565b809150509250929050565b6080516115cd6103f35f395f818161047b015281816104f101528181610554015281816105d8015281816106160152818161067f015281816106f40152818161076301528181610842015281816108a9015261094301526115cd5ff3fe608060405234801561000f575f80fd5b5060043610610184575f3560e01c8063b41f4fcb116100dd578063d598d4c911610088578063e1b4af6911610063578063e1b4af6914610314578063e4cbfea5146104b0578063f2fde38b146104d2575f80fd5b8063d598d4c914610463578063dc4c90d314610476578063dc98354e1461049d575f80fd5b8063bf8bdac1116100b8578063bf8bdac114610327578063c30184b71461033a578063c4e833ce1461036c575f80fd5b8063b41f4fcb146102cb578063b47b2fb1146102de578063b6a8b0fa14610314575f80fd5b80636fe7e6eb1161013d5780638da5cb5b116101185780638da5cb5b146102805780638f6e6878146102a55780639f063efc146102b8575f80fd5b80636fe7e6eb14610250578063715018a61461026357806381ab579a1461026d575f80fd5b8063575e24b41161016d578063575e24b4146101b95780635f105e2d146101f75780636c2bbe7e1461021d575f80fd5b806321d0ee7014610188578063259982e514610188575b5f80fd5b61019b610196366004610ee4565b6104e5565b6040516001600160e01b031990911681526020015b60405180910390f35b6101cc6101c7366004610f6b565b610546565b604080516001600160e01b03199094168452602084019290925262ffffff16908201526060016101b0565b61020a610205366004610fc5565b6105b0565b60405160029190910b81526020016101b0565b61023061022b366004610fe6565b610609565b604080516001600160e01b031990931683526020830191909152016101b0565b61019b61025e366004611082565b610673565b61026b6106d2565b005b61020a61027b3660046110d9565b6106e5565b6001546001600160a01b03165b6040516001600160a01b0390911681526020016101b0565b61026b6102b33660046110f0565b61071a565b6102306102c6366004610fe6565b610756565b61020a6102d936600461111f565b6107af565b6102f16102ec366004611150565b610835565b604080516001600160e01b03199093168352600f9190910b6020830152016101b0565b61019b6103223660046111d1565b61089d565b61026b61033536600461122b565b610900565b61035c6103483660046110d9565b60026020525f908152604090205460ff1681565b60405190151581526020016101b0565b610456604080516101c0810182525f80825260208201819052918101829052606081018290526080810182905260a0810182905260c0810182905260e08101829052610100810182905261012081018290526101408101829052610160810182905261018081018290526101a081019190915250604080516101c0810182525f808252600160208301819052928201819052606082018390526080820181905260a0820181905260c0820181905260e0820192909252610100810182905261012081018290526101408101829052610160810182905261018081018290526101a081019190915290565b6040516101b09190611246565b60045461028d906001600160a01b031681565b61028d7f000000000000000000000000000000000000000000000000000000000000000081565b61019b6104ab366004611367565b610937565b61020a6104be3660046110d9565b60036020525f908152604090205460020b81565b61026b6104e036600461122b565b610994565b5f336001600160a01b037f0000000000000000000000000000000000000000000000000000000000000000161461052f5760405163570c108560e11b815260040160405180910390fd5b61053c86868686866109d6565b9695505050505050565b5f8080336001600160a01b037f000000000000000000000000000000000000000000000000000000000000000016146105925760405163570c108560e11b815260040160405180910390fd5b61059f88888888886109f0565b925092509250955095509592505050565b5f806105fe6105ce6105c7368690038601866113c0565b60a0902090565b6001600160a01b037f00000000000000000000000000000000000000000000000000000000000000001690610a0c565b509095945050505050565b5f80336001600160a01b037f000000000000000000000000000000000000000000000000000000000000000016146106545760405163570c108560e11b815260040160405180910390fd5b61066389898989898989610abe565b9150915097509795505050505050565b5f336001600160a01b037f000000000000000000000000000000000000000000000000000000000000000016146106bd5760405163570c108560e11b815260040160405180910390fd5b6106c985858585610ad9565b95945050505050565b6106da610b26565b6106e35f610b53565b565b5f806105fe6001600160a01b037f00000000000000000000000000000000000000000000000000000000000000001684610a0c565b610722610b26565b600580546fffffffffffffffffffffffffffffffff19166fffffffffffffffffffffffffffffffff92909216919091179055565b5f80336001600160a01b037f000000000000000000000000000000000000000000000000000000000000000016146107a15760405163570c108560e11b815260040160405180910390fd5b6327c18fbf60e21b5f610663565b5f806107bb8385611482565b90505f8460020b1280156107da57506107d483856114ba565b60020b15155b156107f157806107e9816114db565b915050610821565b5f8460020b13801561080e575061080883856114ba565b60020b15155b15610821578061081d816114fc565b9150505b61082b838261151c565b9150505b92915050565b5f80336001600160a01b037f000000000000000000000000000000000000000000000000000000000000000016146108805760405163570c108560e11b815260040160405180910390fd5b61088e888888888888610bb1565b91509150965096945050505050565b5f336001600160a01b037f000000000000000000000000000000000000000000000000000000000000000016146108e75760405163570c108560e11b815260040160405180910390fd5b6108f58787878787876109d6565b979650505050505050565b610908610b26565b6004805473ffffffffffffffffffffffffffffffffffffffff19166001600160a01b0392909216919091179055565b5f336001600160a01b037f000000000000000000000000000000000000000000000000000000000000000016146109815760405163570c108560e11b815260040160405180910390fd5b61098c8484846109d6565b949350505050565b61099c610b26565b6001600160a01b0381166109ca57604051631e4fbdf760e01b81525f60048201526024015b60405180910390fd5b6109d381610b53565b50565b5f604051630a85dc2960e01b815260040160405180910390fd5b5f805f604051630a85dc2960e01b815260040160405180910390fd5b5f805f805f610a1a86610e19565b604051631e2eaeaf60e01b8152600481018290529091505f906001600160a01b03891690631e2eaeaf90602401602060405180830381865afa158015610a62573d5f803e3d5ffd5b505050506040513d601f19601f82011682018060405250810190610a86919061153b565b90506001600160a01b03811695508060a01c60020b945062ffffff8160b81c16935062ffffff8160d01c169250505092959194509250565b5f80604051630a85dc2960e01b815260040160405180910390fd5b5f81600382610af06105c7368990038901896113c0565b815260208101919091526040015f20805462ffffff191662ffffff9290921691909117905550636fe7e6eb60e01b949350505050565b6001546001600160a01b031633146106e35760405163118cdaa760e01b81523360048201526024016109c1565b600180546001600160a01b0383811673ffffffffffffffffffffffffffffffffffffffff19831681179093556040519116919082907f8be0079c531659141344cd1fd0a4f28419497f9722a3daafe3b4186f6b6457e0905f90a35050565b5f8080610bc96105ce6105c7368b90038b018b6113c0565b50509150505f60035f610be68b8036038101906105c791906113c0565b815260208101919091526040015f9081205460020b91508290600390610c146105c7368e90038e018e6113c0565b815260208101919091526040015f20805462ffffff191662ffffff929092169190911790556004546001600160a01b0316610c72576040517ffe4886e0ba8a28ab70816a9bda1847e96bb109f01ef245482b90bf402a22e052905f90a15b6004546001600160a01b031615610e01576005545f90610ca4906fffffffffffffffffffffffffffffffff1642611552565b6040805160a081019091529091505f9080610cc260208e018e61122b565b6001600160a01b031681526020018c6020016020810190610ce3919061122b565b6001600160a01b03168152602001610d0160608e0160408f01611565565b62ffffff168152602001610d1b60808e0160608f0161157e565b60020b81523060209091015290505f610d3c6105c7368e90038e018e6113c0565b6004805460408051635390ab4b60e11b815286516001600160a01b03908116948201949094526020870151841660248201529086015162ffffff1660448201526060860151600290810b606483015260808701518416608483015288900b60a482015260c4810187905260e48101849052929350169063a721569690610104016020604051808303815f875af1158015610dd8573d5f803e3d5ffd5b505050506040513d601f19601f82011682018060405250810190610dfc919061153b565b505050505b5063b47b2fb160e01b995f9950975050505050505050565b6040515f90610e38908390600690602001918252602082015260400190565b604051602081830303815290604052805190602001209050919050565b6001600160a01b03811681146109d3575f80fd5b8035610e7481610e55565b919050565b5f60a08284031215610e89575f80fd5b50919050565b5f60808284031215610e89575f80fd5b5f8083601f840112610eaf575f80fd5b50813567ffffffffffffffff811115610ec6575f80fd5b602083019150836020828501011115610edd575f80fd5b9250929050565b5f805f805f6101608688031215610ef9575f80fd5b8535610f0481610e55565b9450610f138760208801610e79565b9350610f228760c08801610e8f565b925061014086013567ffffffffffffffff811115610f3e575f80fd5b610f4a88828901610e9f565b969995985093965092949392505050565b5f60608284031215610e89575f80fd5b5f805f805f6101408688031215610f80575f80fd5b8535610f8b81610e55565b9450610f9a8760208801610e79565b9350610fa98760c08801610f5b565b925061012086013567ffffffffffffffff811115610f3e575f80fd5b5f60a08284031215610fd5575f80fd5b610fdf8383610e79565b9392505050565b5f805f805f805f6101a0888a031215610ffd575f80fd5b873561100881610e55565b96506110178960208a01610e79565b95506110268960c08a01610e8f565b94506101408801359350610160880135925061018088013567ffffffffffffffff811115611052575f80fd5b61105e8a828b01610e9f565b989b979a50959850939692959293505050565b8035600281900b8114610e74575f80fd5b5f805f806101008587031215611096575f80fd5b84356110a181610e55565b93506110b08660208701610e79565b925060c08501356110c081610e55565b91506110ce60e08601611071565b905092959194509250565b5f602082840312156110e9575f80fd5b5035919050565b5f60208284031215611100575f80fd5b81356fffffffffffffffffffffffffffffffff81168114610fdf575f80fd5b5f8060408385031215611130575f80fd5b61113983611071565b915061114760208401611071565b90509250929050565b5f805f805f806101608789031215611166575f80fd5b863561117181610e55565b95506111808860208901610e79565b945061118f8860c08901610f5b565b9350610120870135925061014087013567ffffffffffffffff8111156111b3575f80fd5b6111bf89828a01610e9f565b979a9699509497509295939492505050565b5f805f805f8061012087890312156111e7575f80fd5b86356111f281610e55565b95506112018860208901610e79565b945060c0870135935060e0870135925061010087013567ffffffffffffffff8111156111b3575f80fd5b5f6020828403121561123b575f80fd5b8135610fdf81610e55565b8151151581526101c081016020830151611264602084018215159052565b506040830151611278604084018215159052565b50606083015161128c606084018215159052565b5060808301516112a0608084018215159052565b5060a08301516112b460a084018215159052565b5060c08301516112c860c084018215159052565b5060e08301516112dc60e084018215159052565b506101008301516112f261010084018215159052565b5061012083015161130861012084018215159052565b5061014083015161131e61014084018215159052565b5061016083015161133461016084018215159052565b5061018083015161134a61018084018215159052565b506101a08301516113606101a084018215159052565b5092915050565b5f805f60e08486031215611379575f80fd5b833561138481610e55565b92506113938560208601610e79565b915060c08401356113a381610e55565b809150509250925092565b803562ffffff81168114610e74575f80fd5b5f60a08284031280156113d1575f80fd5b5060405160a0810167ffffffffffffffff8111828210171561140157634e487b7160e01b5f52604160045260245ffd5b60405261140d83610e69565b815261141b60208401610e69565b602082015261142c604084016113ae565b604082015261143d60608401611071565b606082015261144e60808401610e69565b60808201529392505050565b634e487b7160e01b5f52601260045260245ffd5b634e487b7160e01b5f52601160045260245ffd5b5f8160020b8360020b806114985761149861145a565b627fffff1982145f19821416156114b1576114b161146e565b90059392505050565b5f8260020b806114cc576114cc61145a565b808360020b0791505092915050565b5f8160020b627fffff1981036114f3576114f361146e565b5f190192915050565b5f8160020b627fffff81036115135761151361146e565b60010192915050565b5f8260020b8260020b028060020b91508082146113605761136061146e565b5f6020828403121561154b575f80fd5b5051919050565b8082018082111561082f5761082f61146e565b5f60208284031215611575575f80fd5b610fdf826113ae565b5f6020828403121561158e575f80fd5b610fdf8261107156fea2646970667358221220d633ab21c3979b53a4e2f44505a69a00791abdcf85a44519d64cbc8f07385f7c64736f6c634300081a0033000000000000000000000000e03a1074c86cfedd5c142c4f04f1a1536e20354300000000000000000000000086464c77dd1f62da93b7bc38090a2d2504da5547",
        "nonce": "0xce",
        "chainId": "0xaa36a7"
      },
      "additionalContracts": [],
      "isFixedGasLimit": false
    },
    {
      "hash": "0xf84b79f01de2a9e6d49f87d69c0d5da1ee9bd116cfc4bcad4e997b4396b34450",
      "transactionType": "CALL",
      "contractName": null,
      "contractAddress": "0xc558dbdd856501fcd9aaf1e62eae57a9f0629a3c",
      "function": "approve(address,uint256)",
      "arguments": [
        "0x000000000022D473030F116dDEE9F6B43aC78BA3",
        "115792089237316195423570985008687907853269984665640564039457584007913129639935"
      ],
      "transaction": {
        "from": "0x86464c77dd1f62da93b7bc38090a2d2504da5547",
        "to": "0xc558dbdd856501fcd9aaf1e62eae57a9f0629a3c",
        "gas": "0x976b",
        "value": "0x0",
        "input": "0x095ea7b3000000000000000000000000000000000022d473030f116ddee9f6b43ac78ba3ffffffffffffffffffffffffffffffffffffffffffffffffffffffffffffffff",
        "nonce": "0xcf",
        "chainId": "0xaa36a7"
      },
      "additionalContracts": [],
      "isFixedGasLimit": false
    },
    {
      "hash": "0x88442a9354c60ddd38c82f2a133256d8ef40eccf425d651ac0a23f1b84bb9123",
      "transactionType": "CALL",
      "contractName": null,
      "contractAddress": "0x000000000022d473030f116ddee9f6b43ac78ba3",
      "function": "approve(address,address,uint160,uint48)",
      "arguments": [
        "0xC558DBdd856501FCd9aaF1E62eae57A9F0629a3c",
        "0x429ba70129df741B2Ca2a85BC3A2a3328e5c09b4",
        "1461501637330902918203684832716283019655932542975",
        "281474976710655"
      ],
      "transaction": {
        "from": "0x86464c77dd1f62da93b7bc38090a2d2504da5547",
        "to": "0x000000000022d473030f116ddee9f6b43ac78ba3",
        "gas": "0x96a0",
        "value": "0x0",
        "input": "0x87517c45000000000000000000000000c558dbdd856501fcd9aaf1e62eae57a9f0629a3c000000000000000000000000429ba70129df741b2ca2a85bc3a2a3328e5c09b4000000000000000000000000ffffffffffffffffffffffffffffffffffffffff0000000000000000000000000000000000000000000000000000ffffffffffff",
        "nonce": "0xd0",
        "chainId": "0xaa36a7"
      },
      "additionalContracts": [],
      "isFixedGasLimit": false
    },
    {
      "hash": "0x44d46435c94cd565ae3cbe1e501cf410d261580880eb88ecb3dd2a74403ff098",
      "transactionType": "CALL",
      "contractName": null,
      "contractAddress": "0x94a9d9ac8a22534e3faca9f4e7f2e2cf85d5e4c8",
      "function": "approve(address,uint256)",
      "arguments": [
        "0x000000000022D473030F116dDEE9F6B43aC78BA3",
        "115792089237316195423570985008687907853269984665640564039457584007913129639935"
      ],
      "transaction": {
        "from": "0x86464c77dd1f62da93b7bc38090a2d2504da5547",
        "to": "0x94a9d9ac8a22534e3faca9f4e7f2e2cf85d5e4c8",
        "gas": "0xa7f9",
        "value": "0x0",
        "input": "0x095ea7b3000000000000000000000000000000000022d473030f116ddee9f6b43ac78ba3ffffffffffffffffffffffffffffffffffffffffffffffffffffffffffffffff",
        "nonce": "0xd1",
        "chainId": "0xaa36a7"
      },
      "additionalContracts": [],
      "isFixedGasLimit": false
    },
    {
      "hash": "0xa20c2af0a8305eb9a8f92735418b877d60ef21f9841ad2ff7f6d6ea41aab1908",
      "transactionType": "CALL",
      "contractName": null,
      "contractAddress": "0x000000000022d473030f116ddee9f6b43ac78ba3",
      "function": "approve(address,address,uint160,uint48)",
      "arguments": [
        "0x94a9D9AC8a22534E3FaCa9F4e7F2E2cf85d5E4C8",
        "0x429ba70129df741B2Ca2a85BC3A2a3328e5c09b4",
        "1461501637330902918203684832716283019655932542975",
        "281474976710655"
      ],
      "transaction": {
        "from": "0x86464c77dd1f62da93b7bc38090a2d2504da5547",
        "to": "0x000000000022d473030f116ddee9f6b43ac78ba3",
        "gas": "0x96a0",
        "value": "0x0",
        "input": "0x87517c4500000000000000000000000094a9d9ac8a22534e3faca9f4e7f2e2cf85d5e4c8000000000000000000000000429ba70129df741b2ca2a85bc3a2a3328e5c09b4000000000000000000000000ffffffffffffffffffffffffffffffffffffffff0000000000000000000000000000000000000000000000000000ffffffffffff",
        "nonce": "0xd2",
        "chainId": "0xaa36a7"
      },
      "additionalContracts": [],
      "isFixedGasLimit": false
    },
    {
      "hash": "0xc4b92fc0d4f54a400df2108f4ccec4e9ff6b8d7fa386cc3d05ef4b3565dd35e7",
      "transactionType": "CALL",
      "contractName": null,
      "contractAddress": "0xe03a1074c86cfedd5c142c4f04f1a1536e203543",
      "function": "initialize((address,address,uint24,int24,address),uint160)",
      "arguments": [
        "(0x94a9D9AC8a22534E3FaCa9F4e7F2E2cf85d5E4C8, 0xC558DBdd856501FCd9aaF1E62eae57A9F0629a3c, 3000, 30, 0x5f4E698f3482c6eECa0d234B8B80e1381F605440)",
        "79228162514264337593543950336"
      ],
      "transaction": {
        "from": "0x86464c77dd1f62da93b7bc38090a2d2504da5547",
        "to": "0xe03a1074c86cfedd5c142c4f04f1a1536e203543",
        "gas": "0x13df2",
        "value": "0x0",
        "input": "0x6276cbbe00000000000000000000000094a9d9ac8a22534e3faca9f4e7f2e2cf85d5e4c8000000000000000000000000c558dbdd856501fcd9aaf1e62eae57a9f0629a3c0000000000000000000000000000000000000000000000000000000000000bb8000000000000000000000000000000000000000000000000000000000000001e0000000000000000000000005f4e698f3482c6eeca0d234b8b80e1381f6054400000000000000000000000000000000000000001000000000000000000000000",
        "nonce": "0xd3",
        "chainId": "0xaa36a7"
      },
      "additionalContracts": [],
      "isFixedGasLimit": false
    },
    {
      "hash": "0x3928fc0bf7d0133f4b07cc399f801607e4d07014558b96753fc4ac65ac31bbf1",
      "transactionType": "CALL",
      "contractName": null,
      "contractAddress": "0x429ba70129df741b2ca2a85bc3a2a3328e5c09b4",
      "function": "modifyLiquidities(bytes,uint256)",
      "arguments": [
        "0x0000000000000000000000000000000000000000000000000000000000000040000000000000000000000000000000000000000000000000000000000000008000000000000000000000000000000000000000000000000000000000000000030212120000000000000000000000000000000000000000000000000000000000000000000000000000000000000000000000000000000000000000000000000300000000000000000000000000000000000000000000000000000000000000600000000000000000000000000000000000000000000000000000000000000220000000000000000000000000000000000000000000000000000000000000026000000000000000000000000000000000000000000000000000000000000001a000000000000000000000000094a9d9ac8a22534e3faca9f4e7f2e2cf85d5e4c8000000000000000000000000c558dbdd856501fcd9aaf1e62eae57a9f0629a3c0000000000000000000000000000000000000000000000000000000000000bb8000000000000000000000000000000000000000000000000000000000000001e0000000000000000000000005f4e698f3482c6eeca0d234b8b80e1381f605440ffffffffffffffffffffffffffffffffffffffffffffffffffffffffffffffc4000000000000000000000000000000000000000000000000000000000000003c000000000000000000000000000000000000000000000000000000e8d4a5100000000000000000000000000000000000ffffffffffffffffffffffffffffffff00000000000000000000000000000000ffffffffffffffffffffffffffffffff00000000000000000000000086464c77dd1f62da93b7bc38090a2d2504da554700000000000000000000000000000000000000000000000000000000000001800000000000000000000000000000000000000000000000000000000000000000000000000000000000000000000000000000000000000000000000000000002000000000000000000000000094a9d9ac8a22534e3faca9f4e7f2e2cf85d5e4c80000000000000000000000000000000000000000000000000000000000000020000000000000000000000000c558dbdd856501fcd9aaf1e62eae57a9f0629a3c",
        "1758108120"
      ],
      "transaction": {
        "from": "0x86464c77dd1f62da93b7bc38090a2d2504da5547",
        "to": "0x429ba70129df741b2ca2a85bc3a2a3328e5c09b4",
        "gas": "0x8f183",
        "value": "0x0",
        "input": "0xdd46508f00000000000000000000000000000000000000000000000000000000000000400000000000000000000000000000000000000000000000000000000068ca99d800000000000000000000000000000000000000000000000000000000000003400000000000000000000000000000000000000000000000000000000000000040000000000000000000000000000000000000000000000000000000000000008000000000000000000000000000000000000000000000000000000000000000030212120000000000000000000000000000000000000000000000000000000000000000000000000000000000000000000000000000000000000000000000000300000000000000000000000000000000000000000000000000000000000000600000000000000000000000000000000000000000000000000000000000000220000000000000000000000000000000000000000000000000000000000000026000000000000000000000000000000000000000000000000000000000000001a000000000000000000000000094a9d9ac8a22534e3faca9f4e7f2e2cf85d5e4c8000000000000000000000000c558dbdd856501fcd9aaf1e62eae57a9f0629a3c0000000000000000000000000000000000000000000000000000000000000bb8000000000000000000000000000000000000000000000000000000000000001e0000000000000000000000005f4e698f3482c6eeca0d234b8b80e1381f605440ffffffffffffffffffffffffffffffffffffffffffffffffffffffffffffffc4000000000000000000000000000000000000000000000000000000000000003c000000000000000000000000000000000000000000000000000000e8d4a5100000000000000000000000000000000000ffffffffffffffffffffffffffffffff00000000000000000000000000000000ffffffffffffffffffffffffffffffff00000000000000000000000086464c77dd1f62da93b7bc38090a2d2504da554700000000000000000000000000000000000000000000000000000000000001800000000000000000000000000000000000000000000000000000000000000000000000000000000000000000000000000000000000000000000000000000002000000000000000000000000094a9d9ac8a22534e3faca9f4e7f2e2cf85d5e4c80000000000000000000000000000000000000000000000000000000000000020000000000000000000000000c558dbdd856501fcd9aaf1e62eae57a9f0629a3c",
        "nonce": "0xd4",
        "chainId": "0xaa36a7"
      },
      "additionalContracts": [],
      "isFixedGasLimit": false
    }
  ],
  "receipts": [
    {
      "status": "0x1",
      "cumulativeGasUsed": "0xbdbda3",
      "logs": [
        {
          "address": "0x5f4e698f3482c6eeca0d234b8b80e1381f605440",
          "topics": [
            "0x8be0079c531659141344cd1fd0a4f28419497f9722a3daafe3b4186f6b6457e0",
            "0x0000000000000000000000000000000000000000000000000000000000000000",
            "0x00000000000000000000000086464c77dd1f62da93b7bc38090a2d2504da5547"
          ],
          "data": "0x",
          "blockHash": "0x4aaebcda5585b283e2e5357fd4bd1ac139f2f3e31df781bf0c629c1a1af2077e",
          "blockNumber": "0x8cb5e8",
          "transactionHash": "0x4e79ba9226298d4b68dfba3a22fa4b45eed4400d0cd7ca77d39041579d20c874",
          "transactionIndex": "0x39",
          "logIndex": "0x4e",
          "removed": false
        }
      ],
      "logsBloom": "0x00000000000004000000000000000000000000004000000000800000000000000000040000000000000000000000000000000000000000000000000000000000000000000000000000200000000000000001000000000000000000000000000000000000020000000000000000000800000000000000002000000000000000400000000000000000000000000000000000000000000000000000000000000000000000000000000000000000000000000000000000000000000000000000000000000000000000000000000000800000000000000000000000000000000020000000000000000000000000000000000000000000000000000000000000000000",
      "type": "0x2",
      "transactionHash": "0x4e79ba9226298d4b68dfba3a22fa4b45eed4400d0cd7ca77d39041579d20c874",
      "transactionIndex": "0x39",
      "blockHash": "0x4aaebcda5585b283e2e5357fd4bd1ac139f2f3e31df781bf0c629c1a1af2077e",
      "blockNumber": "0x8cb5e8",
      "gasUsed": "0x148688",
      "effectiveGasPrice": "0x127236",
      "from": "0x86464c77dd1f62da93b7bc38090a2d2504da5547",
      "to": "0x4e59b44847b379578588920ca78fbf26c0b4956c",
      "contractAddress": null
    },
    {
      "status": "0x1",
      "cumulativeGasUsed": "0xbe252c",
      "logs": [
        {
          "address": "0xc558dbdd856501fcd9aaf1e62eae57a9f0629a3c",
          "topics": [
            "0x8c5be1e5ebec7d5bd14f71427d1e84f3dd0314c0f7b2291e5b200ac8c7c3b925",
            "0x00000000000000000000000086464c77dd1f62da93b7bc38090a2d2504da5547",
            "0x000000000000000000000000000000000022d473030f116ddee9f6b43ac78ba3"
          ],
          "data": "0xffffffffffffffffffffffffffffffffffffffffffffffffffffffffffffffff",
          "blockHash": "0x4aaebcda5585b283e2e5357fd4bd1ac139f2f3e31df781bf0c629c1a1af2077e",
          "blockNumber": "0x8cb5e8",
          "transactionHash": "0xf84b79f01de2a9e6d49f87d69c0d5da1ee9bd116cfc4bcad4e997b4396b34450",
          "transactionIndex": "0x3a",
          "logIndex": "0x4f",
          "removed": false
        }
      ],
      "logsBloom": "0x00000000000000000000000000000000000000004000000000000000000000000000040000000000000000000000000000000000800000000100000000200000000000000000000000004000000000000000000000000800000000000000000000000000000000000000000000000000000000000000000000000000000000000000000000000000000000000000000000000000000000002000000000000000020000000000000000000000000000000000000000000000000000000000000000000000000000000000000000800000000000000000000000000000000000000010000800000000000000000000000000000000000000000000000000000000",
      "type": "0x2",
      "transactionHash": "0xf84b79f01de2a9e6d49f87d69c0d5da1ee9bd116cfc4bcad4e997b4396b34450",
      "transactionIndex": "0x3a",
      "blockHash": "0x4aaebcda5585b283e2e5357fd4bd1ac139f2f3e31df781bf0c629c1a1af2077e",
      "blockNumber": "0x8cb5e8",
      "gasUsed": "0x6789",
      "effectiveGasPrice": "0x127236",
      "from": "0x86464c77dd1f62da93b7bc38090a2d2504da5547",
      "to": "0xc558dbdd856501fcd9aaf1e62eae57a9f0629a3c",
      "contractAddress": null
    },
    {
      "status": "0x1",
      "cumulativeGasUsed": "0xbe923a",
      "logs": [
        {
          "address": "0x000000000022d473030f116ddee9f6b43ac78ba3",
          "topics": [
            "0xda9fa7c1b00402c17d0161b249b1ab8bbec047c5a52207b9c112deffd817036b",
            "0x00000000000000000000000086464c77dd1f62da93b7bc38090a2d2504da5547",
            "0x000000000000000000000000c558dbdd856501fcd9aaf1e62eae57a9f0629a3c",
            "0x000000000000000000000000429ba70129df741b2ca2a85bc3a2a3328e5c09b4"
          ],
          "data": "0x000000000000000000000000ffffffffffffffffffffffffffffffffffffffff0000000000000000000000000000000000000000000000000000ffffffffffff",
          "blockHash": "0x4aaebcda5585b283e2e5357fd4bd1ac139f2f3e31df781bf0c629c1a1af2077e",
          "blockNumber": "0x8cb5e8",
          "transactionHash": "0x88442a9354c60ddd38c82f2a133256d8ef40eccf425d651ac0a23f1b84bb9123",
          "transactionIndex": "0x3b",
          "logIndex": "0x50",
          "removed": false
        }
      ],
      "logsBloom": "0x00010000000000000000000000000000000000004000000000000000000000000000040000000040080000000000000000000000000000000000000000080000000000000000000000000000000000000000000000000000000000000000000000000000000000000000000000000000000000002000000000000800000000000020000000000000000000000000000000000000000000000000000000000000000000000000000000000000000000000000000000000000000800080000000000000000000000000000000000800000000000000000000040000000000000000000000000000000000000000000000000000000000000000000001000000400",
      "type": "0x2",
      "transactionHash": "0x88442a9354c60ddd38c82f2a133256d8ef40eccf425d651ac0a23f1b84bb9123",
      "transactionIndex": "0x3b",
      "blockHash": "0x4aaebcda5585b283e2e5357fd4bd1ac139f2f3e31df781bf0c629c1a1af2077e",
      "blockNumber": "0x8cb5e8",
      "gasUsed": "0x6d0e",
      "effectiveGasPrice": "0x127236",
      "from": "0x86464c77dd1f62da93b7bc38090a2d2504da5547",
      "to": "0x000000000022d473030f116ddee9f6b43ac78ba3",
      "contractAddress": null
    },
    {
      "status": "0x1",
      "cumulativeGasUsed": "0xbf0515",
      "logs": [
        {
          "address": "0x94a9d9ac8a22534e3faca9f4e7f2e2cf85d5e4c8",
          "topics": [
            "0x8c5be1e5ebec7d5bd14f71427d1e84f3dd0314c0f7b2291e5b200ac8c7c3b925",
            "0x00000000000000000000000086464c77dd1f62da93b7bc38090a2d2504da5547",
            "0x000000000000000000000000000000000022d473030f116ddee9f6b43ac78ba3"
          ],
          "data": "0xffffffffffffffffffffffffffffffffffffffffffffffffffffffffffffffff",
          "blockHash": "0x4aaebcda5585b283e2e5357fd4bd1ac139f2f3e31df781bf0c629c1a1af2077e",
          "blockNumber": "0x8cb5e8",
          "transactionHash": "0x44d46435c94cd565ae3cbe1e501cf410d261580880eb88ecb3dd2a74403ff098",
          "transactionIndex": "0x3c",
          "logIndex": "0x51",
          "removed": false
        }
      ],
      "logsBloom": "0x00000000000000000000000000000000000000004000000000000000000000000000040000000000000000000000000000000000800000000000000000200000000000000000000000004000000000000000000000000800000008000000000000000000000000000000000000000000000000000000000000000000000000000000000000000000000000000000000000000000000000000000000000000000020000000100000000004000000000000000000000000000000000000000000000000000000000000000000000800000000000000000000000000000000000000010000000000000000000000000000000000000000000000000000000000000",
      "type": "0x2",
      "transactionHash": "0x44d46435c94cd565ae3cbe1e501cf410d261580880eb88ecb3dd2a74403ff098",
      "transactionIndex": "0x3c",
      "blockHash": "0x4aaebcda5585b283e2e5357fd4bd1ac139f2f3e31df781bf0c629c1a1af2077e",
      "blockNumber": "0x8cb5e8",
      "gasUsed": "0x72db",
      "effectiveGasPrice": "0x127236",
      "from": "0x86464c77dd1f62da93b7bc38090a2d2504da5547",
      "to": "0x94a9d9ac8a22534e3faca9f4e7f2e2cf85d5e4c8",
      "contractAddress": null
    },
    {
      "status": "0x1",
      "cumulativeGasUsed": "0xbf7223",
      "logs": [
        {
          "address": "0x000000000022d473030f116ddee9f6b43ac78ba3",
          "topics": [
            "0xda9fa7c1b00402c17d0161b249b1ab8bbec047c5a52207b9c112deffd817036b",
            "0x00000000000000000000000086464c77dd1f62da93b7bc38090a2d2504da5547",
            "0x00000000000000000000000094a9d9ac8a22534e3faca9f4e7f2e2cf85d5e4c8",
            "0x000000000000000000000000429ba70129df741b2ca2a85bc3a2a3328e5c09b4"
          ],
          "data": "0x000000000000000000000000ffffffffffffffffffffffffffffffffffffffff0000000000000000000000000000000000000000000000000000ffffffffffff",
          "blockHash": "0x4aaebcda5585b283e2e5357fd4bd1ac139f2f3e31df781bf0c629c1a1af2077e",
          "blockNumber": "0x8cb5e8",
          "transactionHash": "0xa20c2af0a8305eb9a8f92735418b877d60ef21f9841ad2ff7f6d6ea41aab1908",
          "transactionIndex": "0x3d",
          "logIndex": "0x52",
          "removed": false
        }
      ],
      "logsBloom": "0x00010000000000000200000000000000000000004000000000000000000000000000040000000040080100000000000000000000000000000000000000080000000000000000000000000000000000000000000000000000000000000000000000000000000000000000000000000000000000000000000000000800000000000020000000000000000000000000000000000000000000000000000000000000000000000000000000000000000000000000000000000000000000080000000000000000000000000000000000800000000000000000020040000000000000000000000000000000000000000000000000000000000000000000000000000400",
      "type": "0x2",
      "transactionHash": "0xa20c2af0a8305eb9a8f92735418b877d60ef21f9841ad2ff7f6d6ea41aab1908",
      "transactionIndex": "0x3d",
      "blockHash": "0x4aaebcda5585b283e2e5357fd4bd1ac139f2f3e31df781bf0c629c1a1af2077e",
      "blockNumber": "0x8cb5e8",
      "gasUsed": "0x6d0e",
      "effectiveGasPrice": "0x127236",
      "from": "0x86464c77dd1f62da93b7bc38090a2d2504da5547",
      "to": "0x000000000022d473030f116ddee9f6b43ac78ba3",
      "contractAddress": null
    },
    {
      "status": "0x1",
      "cumulativeGasUsed": "0xc05853",
      "logs": [
        {
          "address": "0xe03a1074c86cfedd5c142c4f04f1a1536e203543",
          "topics": [
            "0xdd466e674ea557f56295e2d0218a125ea4b4f0f6f3307b95f85e6110838d6438",
            "0x888698cf8b8ecb161bd7bf652feef3858cb50d791f205662a68bc127d420e214",
            "0x00000000000000000000000094a9d9ac8a22534e3faca9f4e7f2e2cf85d5e4c8",
            "0x000000000000000000000000c558dbdd856501fcd9aaf1e62eae57a9f0629a3c"
          ],
          "data": "0x0000000000000000000000000000000000000000000000000000000000000bb8000000000000000000000000000000000000000000000000000000000000001e0000000000000000000000005f4e698f3482c6eeca0d234b8b80e1381f60544000000000000000000000000000000000000000010000000000000000000000000000000000000000000000000000000000000000000000000000000000000000",
          "blockHash": "0x4aaebcda5585b283e2e5357fd4bd1ac139f2f3e31df781bf0c629c1a1af2077e",
          "blockNumber": "0x8cb5e8",
          "transactionHash": "0xc4b92fc0d4f54a400df2108f4ccec4e9ff6b8d7fa386cc3d05ef4b3565dd35e7",
          "transactionIndex": "0x3e",
          "logIndex": "0x53",
          "removed": false
        }
      ],
      "logsBloom": "0x00000000000000000200000000000000000000000000000000002000000000000000000000000000000100000000000000000100000000000000000000000000000000000000000000000800000000000000000000000000000000000000000000000000000000000000000000000000000000002000100000000000000000000000000000000008000000020000000000000001000000000000000000200000000000000000000000000000000000000000000000000000000800000000000000000000000000000000000000000000000000000000020000000000000000001000000000000000000000000000000000000000000000000000001000000000",
      "type": "0x2",
      "transactionHash": "0xc4b92fc0d4f54a400df2108f4ccec4e9ff6b8d7fa386cc3d05ef4b3565dd35e7",
      "transactionIndex": "0x3e",
      "blockHash": "0x4aaebcda5585b283e2e5357fd4bd1ac139f2f3e31df781bf0c629c1a1af2077e",
      "blockNumber": "0x8cb5e8",
      "gasUsed": "0xe630",
      "effectiveGasPrice": "0x127236",
      "from": "0x86464c77dd1f62da93b7bc38090a2d2504da5547",
      "to": "0xe03a1074c86cfedd5c142c4f04f1a1536e203543",
      "contractAddress": null
    },
    {
      "status": "0x1",
      "cumulativeGasUsed": "0xc675ce",
      "logs": [
        {
          "address": "0x429ba70129df741b2ca2a85bc3a2a3328e5c09b4",
          "topics": [
            "0xddf252ad1be2c89b69c2b068fc378daa952ba7f163c4a11628f55a4df523b3ef",
            "0x0000000000000000000000000000000000000000000000000000000000000000",
            "0x00000000000000000000000086464c77dd1f62da93b7bc38090a2d2504da5547",
            "0x00000000000000000000000000000000000000000000000000000000000042f6"
          ],
          "data": "0x",
          "blockHash": "0x4aaebcda5585b283e2e5357fd4bd1ac139f2f3e31df781bf0c629c1a1af2077e",
          "blockNumber": "0x8cb5e8",
          "transactionHash": "0x3928fc0bf7d0133f4b07cc399f801607e4d07014558b96753fc4ac65ac31bbf1",
          "transactionIndex": "0x3f",
          "logIndex": "0x54",
          "removed": false
        },
        {
          "address": "0xe03a1074c86cfedd5c142c4f04f1a1536e203543",
          "topics": [
            "0xf208f4912782fd25c7f114ca3723a2d5dd6f3bcc3ac8db5af63baa85f711d5ec",
            "0x888698cf8b8ecb161bd7bf652feef3858cb50d791f205662a68bc127d420e214",
            "0x000000000000000000000000429ba70129df741b2ca2a85bc3a2a3328e5c09b4"
          ],
          "data": "0xffffffffffffffffffffffffffffffffffffffffffffffffffffffffffffffc4000000000000000000000000000000000000000000000000000000000000003c000000000000000000000000000000000000000000000000000000e8d4a5100000000000000000000000000000000000000000000000000000000000000042f6",
          "blockHash": "0x4aaebcda5585b283e2e5357fd4bd1ac139f2f3e31df781bf0c629c1a1af2077e",
          "blockNumber": "0x8cb5e8",
          "transactionHash": "0x3928fc0bf7d0133f4b07cc399f801607e4d07014558b96753fc4ac65ac31bbf1",
          "transactionIndex": "0x3f",
          "logIndex": "0x55",
          "removed": false
        },
        {
          "address": "0x94a9d9ac8a22534e3faca9f4e7f2e2cf85d5e4c8",
          "topics": [
            "0xddf252ad1be2c89b69c2b068fc378daa952ba7f163c4a11628f55a4df523b3ef",
            "0x00000000000000000000000086464c77dd1f62da93b7bc38090a2d2504da5547",
            "0x000000000000000000000000e03a1074c86cfedd5c142c4f04f1a1536e203543"
          ],
          "data": "0x00000000000000000000000000000000000000000000000000000000b2897d4c",
          "blockHash": "0x4aaebcda5585b283e2e5357fd4bd1ac139f2f3e31df781bf0c629c1a1af2077e",
          "blockNumber": "0x8cb5e8",
          "transactionHash": "0x3928fc0bf7d0133f4b07cc399f801607e4d07014558b96753fc4ac65ac31bbf1",
          "transactionIndex": "0x3f",
          "logIndex": "0x56",
          "removed": false
        },
        {
          "address": "0x94a9d9ac8a22534e3faca9f4e7f2e2cf85d5e4c8",
          "topics": [
            "0x8c5be1e5ebec7d5bd14f71427d1e84f3dd0314c0f7b2291e5b200ac8c7c3b925",
            "0x00000000000000000000000086464c77dd1f62da93b7bc38090a2d2504da5547",
            "0x000000000000000000000000000000000022d473030f116ddee9f6b43ac78ba3"
          ],
          "data": "0xffffffffffffffffffffffffffffffffffffffffffffffffffffffff4d7682b3",
          "blockHash": "0x4aaebcda5585b283e2e5357fd4bd1ac139f2f3e31df781bf0c629c1a1af2077e",
          "blockNumber": "0x8cb5e8",
          "transactionHash": "0x3928fc0bf7d0133f4b07cc399f801607e4d07014558b96753fc4ac65ac31bbf1",
          "transactionIndex": "0x3f",
          "logIndex": "0x57",
          "removed": false
        },
        {
          "address": "0xc558dbdd856501fcd9aaf1e62eae57a9f0629a3c",
          "topics": [
            "0xddf252ad1be2c89b69c2b068fc378daa952ba7f163c4a11628f55a4df523b3ef",
            "0x00000000000000000000000086464c77dd1f62da93b7bc38090a2d2504da5547",
            "0x000000000000000000000000e03a1074c86cfedd5c142c4f04f1a1536e203543"
          ],
          "data": "0x00000000000000000000000000000000000000000000000000000000b2897d4c",
          "blockHash": "0x4aaebcda5585b283e2e5357fd4bd1ac139f2f3e31df781bf0c629c1a1af2077e",
          "blockNumber": "0x8cb5e8",
          "transactionHash": "0x3928fc0bf7d0133f4b07cc399f801607e4d07014558b96753fc4ac65ac31bbf1",
          "transactionIndex": "0x3f",
          "logIndex": "0x58",
          "removed": false
        }
      ],
      "logsBloom": "0x00000000000000000000001000000000000000004000000000002000080000000000040000000040080000000000000000000100800000000100000000200000000000000000000000004808000000000000000000000800000008000008000000000000020000000000000080000800000000000000100000000810000000000000000001000000000010020000000000000000000000002000000000000000020004000100000000004000000000000000000000408000000000000000000000000002000000000000000000800000000000000000000000001000000020001010000800000000000000000000000004000000000000000000000000000000",
      "type": "0x2",
      "transactionHash": "0x3928fc0bf7d0133f4b07cc399f801607e4d07014558b96753fc4ac65ac31bbf1",
      "transactionIndex": "0x3f",
      "blockHash": "0x4aaebcda5585b283e2e5357fd4bd1ac139f2f3e31df781bf0c629c1a1af2077e",
      "blockNumber": "0x8cb5e8",
      "gasUsed": "0x61d7b",
      "effectiveGasPrice": "0x127236",
      "from": "0x86464c77dd1f62da93b7bc38090a2d2504da5547",
      "to": "0x429ba70129df741b2ca2a85bc3a2a3328e5c09b4",
      "contractAddress": null
    }
  ],
  "libraries": [],
  "pending": [],
  "returns": {},
  "timestamp": 1758107905,
  "chain": 11155111,
  "commit": "ab5b7fe"
}